{
  "address": "0x068bEF92987D16eF682FF017B822CA1211401EaF",
  "abi": [
    {
      "anonymous": false,
      "inputs": [
        {
          "indexed": true,
          "internalType": "address",
          "name": "owner",
          "type": "address"
        },
        {
          "indexed": true,
          "internalType": "address",
          "name": "approved",
          "type": "address"
        },
        {
          "indexed": true,
          "internalType": "uint256",
          "name": "tokenId",
          "type": "uint256"
        }
      ],
      "name": "Approval",
      "type": "event"
    },
    {
      "anonymous": false,
      "inputs": [
        {
          "indexed": true,
          "internalType": "address",
          "name": "owner",
          "type": "address"
        },
        {
          "indexed": true,
          "internalType": "address",
          "name": "operator",
          "type": "address"
        },
        {
          "indexed": false,
          "internalType": "bool",
          "name": "approved",
          "type": "bool"
        }
      ],
      "name": "ApprovalForAll",
      "type": "event"
    },
    {
      "anonymous": false,
      "inputs": [
        {
          "indexed": false,
          "internalType": "uint8",
          "name": "version",
          "type": "uint8"
        }
      ],
      "name": "Initialized",
      "type": "event"
    },
    {
      "anonymous": false,
      "inputs": [
        {
          "indexed": true,
          "internalType": "address",
          "name": "msgSender",
          "type": "address"
        },
        {
          "indexed": true,
          "internalType": "uint256",
          "name": "tokenId",
          "type": "uint256"
        },
        {
          "indexed": false,
          "internalType": "string",
          "name": "lockedContent",
          "type": "string"
        }
      ],
      "name": "LockedContentViewed",
      "type": "event"
    },
    {
      "anonymous": false,
      "inputs": [
        {
          "indexed": true,
          "internalType": "address",
          "name": "toAddress",
          "type": "address"
        },
        {
          "indexed": true,
          "internalType": "uint256",
          "name": "tokenId",
          "type": "uint256"
        },
        {
          "indexed": false,
          "internalType": "string",
          "name": "tokenURI",
          "type": "string"
        }
      ],
      "name": "Minted",
      "type": "event"
    },
    {
      "anonymous": false,
      "inputs": [
        {
          "indexed": true,
          "internalType": "address",
          "name": "previousOwner",
          "type": "address"
        },
        {
          "indexed": true,
          "internalType": "address",
          "name": "newOwner",
          "type": "address"
        }
      ],
      "name": "OwnershipTransferred",
      "type": "event"
    },
    {
      "anonymous": false,
      "inputs": [
        {
          "indexed": false,
          "internalType": "address",
          "name": "account",
          "type": "address"
        }
      ],
      "name": "Paused",
      "type": "event"
    },
    {
      "anonymous": false,
      "inputs": [
        {
          "indexed": true,
          "internalType": "bytes32",
          "name": "role",
          "type": "bytes32"
        },
        {
          "indexed": true,
          "internalType": "bytes32",
          "name": "previousAdminRole",
          "type": "bytes32"
        },
        {
          "indexed": true,
          "internalType": "bytes32",
          "name": "newAdminRole",
          "type": "bytes32"
        }
      ],
      "name": "RoleAdminChanged",
      "type": "event"
    },
    {
      "anonymous": false,
      "inputs": [
        {
          "indexed": true,
          "internalType": "bytes32",
          "name": "role",
          "type": "bytes32"
        },
        {
          "indexed": true,
          "internalType": "address",
          "name": "account",
          "type": "address"
        },
        {
          "indexed": true,
          "internalType": "address",
          "name": "sender",
          "type": "address"
        }
      ],
      "name": "RoleGranted",
      "type": "event"
    },
    {
      "anonymous": false,
      "inputs": [
        {
          "indexed": true,
          "internalType": "bytes32",
          "name": "role",
          "type": "bytes32"
        },
        {
          "indexed": true,
          "internalType": "address",
          "name": "account",
          "type": "address"
        },
        {
          "indexed": true,
          "internalType": "address",
          "name": "sender",
          "type": "address"
        }
      ],
      "name": "RoleRevoked",
      "type": "event"
    },
    {
      "anonymous": false,
      "inputs": [
        {
          "indexed": true,
          "internalType": "address",
          "name": "from",
          "type": "address"
        },
        {
          "indexed": true,
          "internalType": "address",
          "name": "to",
          "type": "address"
        },
        {
          "indexed": true,
          "internalType": "uint256",
          "name": "tokenId",
          "type": "uint256"
        }
      ],
      "name": "Transfer",
      "type": "event"
    },
    {
      "anonymous": false,
      "inputs": [
        {
          "indexed": false,
          "internalType": "address",
          "name": "account",
          "type": "address"
        }
      ],
      "name": "Unpaused",
      "type": "event"
    },
    {
      "inputs": [],
      "name": "DEFAULT_ADMIN_ROLE",
      "outputs": [
        {
          "internalType": "bytes32",
          "name": "",
          "type": "bytes32"
        }
      ],
      "stateMutability": "view",
      "type": "function"
    },
    {
      "inputs": [],
      "name": "MINTER_ROLE",
      "outputs": [
        {
          "internalType": "bytes32",
          "name": "",
          "type": "bytes32"
        }
      ],
      "stateMutability": "view",
      "type": "function"
    },
    {
      "inputs": [],
      "name": "PAUSER_ROLE",
      "outputs": [
        {
          "internalType": "bytes32",
          "name": "",
          "type": "bytes32"
        }
      ],
      "stateMutability": "view",
      "type": "function"
    },
    {
      "inputs": [],
      "name": "_GHOSTMARKET_NFT_ROYALTIES",
      "outputs": [
        {
          "internalType": "bytes4",
          "name": "",
          "type": "bytes4"
        }
      ],
      "stateMutability": "view",
      "type": "function"
    },
    {
      "inputs": [],
      "name": "_INTERFACE_ID_ERC721_GHOSTMARKET",
      "outputs": [
        {
          "internalType": "bytes4",
          "name": "",
          "type": "bytes4"
        }
      ],
      "stateMutability": "view",
      "type": "function"
    },
    {
      "inputs": [
        {
          "internalType": "address",
          "name": "to",
          "type": "address"
        },
        {
          "internalType": "uint256",
          "name": "tokenId",
          "type": "uint256"
        }
      ],
      "name": "approve",
      "outputs": [],
      "stateMutability": "nonpayable",
      "type": "function"
    },
    {
      "inputs": [
        {
          "internalType": "address",
          "name": "owner",
          "type": "address"
        }
      ],
      "name": "balanceOf",
      "outputs": [
        {
          "internalType": "uint256",
          "name": "",
          "type": "uint256"
        }
      ],
      "stateMutability": "view",
      "type": "function"
    },
    {
      "inputs": [
        {
          "internalType": "uint256",
          "name": "tokenId",
          "type": "uint256"
        }
      ],
      "name": "burn",
      "outputs": [],
      "stateMutability": "nonpayable",
      "type": "function"
    },
    {
      "inputs": [
        {
          "internalType": "uint256[]",
          "name": "tokensId",
          "type": "uint256[]"
        }
      ],
      "name": "burnBatch",
      "outputs": [],
      "stateMutability": "nonpayable",
      "type": "function"
    },
    {
      "inputs": [
        {
          "internalType": "uint256",
          "name": "tokenId",
          "type": "uint256"
        }
      ],
      "name": "getApproved",
      "outputs": [
        {
          "internalType": "address",
          "name": "",
          "type": "address"
        }
      ],
      "stateMutability": "view",
      "type": "function"
    },
    {
      "inputs": [],
      "name": "getCurrentCounter",
      "outputs": [
        {
          "internalType": "uint256",
          "name": "",
          "type": "uint256"
        }
      ],
      "stateMutability": "view",
      "type": "function"
    },
    {
      "inputs": [
        {
          "internalType": "uint256",
          "name": "tokenId",
          "type": "uint256"
        }
      ],
      "name": "getCurrentLockedContentViewTracker",
      "outputs": [
        {
          "internalType": "uint256",
          "name": "",
          "type": "uint256"
        }
      ],
      "stateMutability": "view",
      "type": "function"
    },
    {
      "inputs": [],
      "name": "getLastTokenID",
      "outputs": [
        {
          "internalType": "uint256",
          "name": "",
          "type": "uint256"
        }
      ],
      "stateMutability": "view",
      "type": "function"
    },
    {
      "inputs": [
        {
          "internalType": "uint256",
          "name": "tokenId",
          "type": "uint256"
        }
      ],
      "name": "getLockedContent",
      "outputs": [],
      "stateMutability": "nonpayable",
      "type": "function"
    },
    {
      "inputs": [
        {
          "internalType": "bytes32",
          "name": "role",
          "type": "bytes32"
        }
      ],
      "name": "getRoleAdmin",
      "outputs": [
        {
          "internalType": "bytes32",
          "name": "",
          "type": "bytes32"
        }
      ],
      "stateMutability": "view",
      "type": "function"
    },
    {
      "inputs": [
        {
          "internalType": "bytes32",
          "name": "role",
          "type": "bytes32"
        },
        {
          "internalType": "uint256",
          "name": "index",
          "type": "uint256"
        }
      ],
      "name": "getRoleMember",
      "outputs": [
        {
          "internalType": "address",
          "name": "",
          "type": "address"
        }
      ],
      "stateMutability": "view",
      "type": "function"
    },
    {
      "inputs": [
        {
          "internalType": "bytes32",
          "name": "role",
          "type": "bytes32"
        }
      ],
      "name": "getRoleMemberCount",
      "outputs": [
        {
          "internalType": "uint256",
          "name": "",
          "type": "uint256"
        }
      ],
      "stateMutability": "view",
      "type": "function"
    },
    {
      "inputs": [
        {
          "internalType": "uint256",
          "name": "tokenId",
          "type": "uint256"
        }
      ],
      "name": "getRoyalties",
      "outputs": [
        {
          "components": [
            {
              "internalType": "address payable",
              "name": "recipient",
              "type": "address"
            },
            {
              "internalType": "uint256",
              "name": "value",
              "type": "uint256"
            }
          ],
          "internalType": "struct LibPart.Part[]",
          "name": "",
          "type": "tuple[]"
        }
      ],
      "stateMutability": "view",
      "type": "function"
    },
    {
      "inputs": [
        {
          "internalType": "uint256",
          "name": "tokenId",
          "type": "uint256"
        }
      ],
      "name": "getRoyaltiesBps",
      "outputs": [
        {
          "internalType": "uint256[]",
          "name": "",
          "type": "uint256[]"
        }
      ],
      "stateMutability": "view",
      "type": "function"
    },
    {
      "inputs": [
        {
          "internalType": "uint256",
          "name": "tokenId",
          "type": "uint256"
        }
      ],
      "name": "getRoyaltiesRecipients",
      "outputs": [
        {
          "internalType": "address payable[]",
          "name": "",
          "type": "address[]"
        }
      ],
      "stateMutability": "view",
      "type": "function"
    },
    {
      "inputs": [
        {
          "internalType": "bytes32",
          "name": "role",
          "type": "bytes32"
        },
        {
          "internalType": "address",
          "name": "account",
          "type": "address"
        }
      ],
      "name": "grantRole",
      "outputs": [],
      "stateMutability": "nonpayable",
      "type": "function"
    },
    {
      "inputs": [
        {
          "internalType": "bytes32",
          "name": "role",
          "type": "bytes32"
        },
        {
          "internalType": "address",
          "name": "account",
          "type": "address"
        }
      ],
      "name": "hasRole",
      "outputs": [
        {
          "internalType": "bool",
          "name": "",
          "type": "bool"
        }
      ],
      "stateMutability": "view",
      "type": "function"
    },
    {
      "inputs": [
        {
          "internalType": "string",
          "name": "name",
          "type": "string"
        },
        {
          "internalType": "string",
          "name": "symbol",
          "type": "string"
        },
        {
          "internalType": "string",
          "name": "uri",
          "type": "string"
        }
      ],
      "name": "initialize",
      "outputs": [],
      "stateMutability": "nonpayable",
      "type": "function"
    },
    {
      "inputs": [
        {
          "internalType": "address",
          "name": "owner",
          "type": "address"
        },
        {
          "internalType": "address",
          "name": "operator",
          "type": "address"
        }
      ],
      "name": "isApprovedForAll",
      "outputs": [
        {
          "internalType": "bool",
          "name": "",
          "type": "bool"
        }
      ],
      "stateMutability": "view",
      "type": "function"
    },
    {
      "inputs": [
        {
          "components": [
            {
              "internalType": "uint256",
              "name": "tokenId",
              "type": "uint256"
            },
            {
              "internalType": "string",
              "name": "tokenURI",
              "type": "string"
            },
            {
              "internalType": "address",
              "name": "minter",
              "type": "address"
            },
            {
              "components": [
                {
                  "internalType": "address payable",
                  "name": "recipient",
                  "type": "address"
                },
                {
                  "internalType": "uint256",
                  "name": "value",
                  "type": "uint256"
                }
              ],
              "internalType": "struct LibPart.Part[]",
              "name": "royalties",
              "type": "tuple[]"
            },
            {
              "internalType": "bytes",
              "name": "signature",
              "type": "bytes"
            }
          ],
          "internalType": "struct LibERC721LazyMint.Mint721Data",
          "name": "lazyMintData",
          "type": "tuple"
        },
        {
          "internalType": "address",
          "name": "to",
          "type": "address"
        }
      ],
      "name": "mintAndTransfer",
      "outputs": [],
      "stateMutability": "nonpayable",
      "type": "function"
    },
    {
      "inputs": [
        {
          "internalType": "address",
          "name": "to",
          "type": "address"
        },
        {
          "components": [
            {
              "internalType": "address payable",
              "name": "recipient",
              "type": "address"
            },
            {
              "internalType": "uint256",
              "name": "value",
              "type": "uint256"
            }
          ],
          "internalType": "struct LibPart.Part[]",
          "name": "royalties",
          "type": "tuple[]"
        },
        {
          "internalType": "string",
          "name": "tokenURI",
          "type": "string"
        },
        {
          "internalType": "string",
          "name": "lockedcontent",
          "type": "string"
        }
      ],
      "name": "mintGhost",
      "outputs": [],
      "stateMutability": "payable",
      "type": "function"
    },
    {
      "inputs": [],
      "name": "name",
      "outputs": [
        {
          "internalType": "string",
          "name": "",
          "type": "string"
        }
      ],
      "stateMutability": "view",
      "type": "function"
    },
    {
      "inputs": [],
      "name": "owner",
      "outputs": [
        {
          "internalType": "address",
          "name": "",
          "type": "address"
        }
      ],
      "stateMutability": "view",
      "type": "function"
    },
    {
      "inputs": [
        {
          "internalType": "uint256",
          "name": "tokenId",
          "type": "uint256"
        }
      ],
      "name": "ownerOf",
      "outputs": [
        {
          "internalType": "address",
          "name": "",
          "type": "address"
        }
      ],
      "stateMutability": "view",
      "type": "function"
    },
    {
      "inputs": [],
      "name": "pause",
      "outputs": [],
      "stateMutability": "nonpayable",
      "type": "function"
    },
    {
      "inputs": [],
      "name": "paused",
      "outputs": [
        {
          "internalType": "bool",
          "name": "",
          "type": "bool"
        }
      ],
      "stateMutability": "view",
      "type": "function"
    },
    {
      "inputs": [],
      "name": "renounceOwnership",
      "outputs": [],
      "stateMutability": "nonpayable",
      "type": "function"
    },
    {
      "inputs": [
        {
          "internalType": "bytes32",
          "name": "role",
          "type": "bytes32"
        },
        {
          "internalType": "address",
          "name": "account",
          "type": "address"
        }
      ],
      "name": "renounceRole",
      "outputs": [],
      "stateMutability": "nonpayable",
      "type": "function"
    },
    {
      "inputs": [
        {
          "internalType": "bytes32",
          "name": "role",
          "type": "bytes32"
        },
        {
          "internalType": "address",
          "name": "account",
          "type": "address"
        }
      ],
      "name": "revokeRole",
      "outputs": [],
      "stateMutability": "nonpayable",
      "type": "function"
    },
    {
      "inputs": [
        {
          "internalType": "address",
          "name": "from",
          "type": "address"
        },
        {
          "internalType": "address",
          "name": "to",
          "type": "address"
        },
        {
          "internalType": "uint256",
          "name": "tokenId",
          "type": "uint256"
        }
      ],
      "name": "safeTransferFrom",
      "outputs": [],
      "stateMutability": "nonpayable",
      "type": "function"
    },
    {
      "inputs": [
        {
          "internalType": "address",
          "name": "from",
          "type": "address"
        },
        {
          "internalType": "address",
          "name": "to",
          "type": "address"
        },
        {
          "internalType": "uint256",
          "name": "tokenId",
          "type": "uint256"
        },
        {
          "internalType": "bytes",
          "name": "_data",
          "type": "bytes"
        }
      ],
      "name": "safeTransferFrom",
      "outputs": [],
      "stateMutability": "nonpayable",
      "type": "function"
    },
    {
      "inputs": [
        {
          "internalType": "address",
          "name": "operator",
          "type": "address"
        },
        {
          "internalType": "bool",
          "name": "approved",
          "type": "bool"
        }
      ],
      "name": "setApprovalForAll",
      "outputs": [],
      "stateMutability": "nonpayable",
      "type": "function"
    },
    {
      "inputs": [
        {
          "internalType": "string",
          "name": "baseTokenURI",
          "type": "string"
        }
      ],
      "name": "setBaseTokenURI",
      "outputs": [],
      "stateMutability": "nonpayable",
      "type": "function"
    },
    {
      "inputs": [
        {
          "internalType": "bytes4",
          "name": "interfaceId",
          "type": "bytes4"
        }
      ],
      "name": "supportsInterface",
      "outputs": [
        {
          "internalType": "bool",
          "name": "",
          "type": "bool"
        }
      ],
      "stateMutability": "view",
      "type": "function"
    },
    {
      "inputs": [],
      "name": "symbol",
      "outputs": [
        {
          "internalType": "string",
          "name": "",
          "type": "string"
        }
      ],
      "stateMutability": "view",
      "type": "function"
    },
    {
      "inputs": [
        {
          "internalType": "uint256",
          "name": "index",
          "type": "uint256"
        }
      ],
      "name": "tokenByIndex",
      "outputs": [
        {
          "internalType": "uint256",
          "name": "",
          "type": "uint256"
        }
      ],
      "stateMutability": "view",
      "type": "function"
    },
    {
      "inputs": [
        {
          "internalType": "address",
          "name": "owner",
          "type": "address"
        },
        {
          "internalType": "uint256",
          "name": "index",
          "type": "uint256"
        }
      ],
      "name": "tokenOfOwnerByIndex",
      "outputs": [
        {
          "internalType": "uint256",
          "name": "",
          "type": "uint256"
        }
      ],
      "stateMutability": "view",
      "type": "function"
    },
    {
      "inputs": [
        {
          "internalType": "uint256",
          "name": "tokenId",
          "type": "uint256"
        }
      ],
      "name": "tokenURI",
      "outputs": [
        {
          "internalType": "string",
          "name": "",
          "type": "string"
        }
      ],
      "stateMutability": "view",
      "type": "function"
    },
    {
      "inputs": [],
      "name": "totalSupply",
      "outputs": [
        {
          "internalType": "uint256",
          "name": "",
          "type": "uint256"
        }
      ],
      "stateMutability": "view",
      "type": "function"
    },
    {
      "inputs": [
        {
          "internalType": "address",
          "name": "from",
          "type": "address"
        },
        {
          "internalType": "address",
          "name": "to",
          "type": "address"
        },
        {
          "internalType": "uint256",
          "name": "tokenId",
          "type": "uint256"
        }
      ],
      "name": "transferFrom",
      "outputs": [],
      "stateMutability": "nonpayable",
      "type": "function"
    },
    {
      "inputs": [
        {
          "components": [
            {
              "internalType": "uint256",
              "name": "tokenId",
              "type": "uint256"
            },
            {
              "internalType": "string",
              "name": "tokenURI",
              "type": "string"
            },
            {
              "internalType": "address",
              "name": "minter",
              "type": "address"
            },
            {
              "components": [
                {
                  "internalType": "address payable",
                  "name": "recipient",
                  "type": "address"
                },
                {
                  "internalType": "uint256",
                  "name": "value",
                  "type": "uint256"
                }
              ],
              "internalType": "struct LibPart.Part[]",
              "name": "royalties",
              "type": "tuple[]"
            },
            {
              "internalType": "bytes",
              "name": "signature",
              "type": "bytes"
            }
          ],
          "internalType": "struct LibERC721LazyMint.Mint721Data",
          "name": "data",
          "type": "tuple"
        },
        {
          "internalType": "address",
          "name": "from",
          "type": "address"
        },
        {
          "internalType": "address",
          "name": "to",
          "type": "address"
        }
      ],
      "name": "transferFromOrMint",
      "outputs": [],
      "stateMutability": "nonpayable",
      "type": "function"
    },
    {
      "inputs": [
        {
          "internalType": "address",
          "name": "newOwner",
          "type": "address"
        }
      ],
      "name": "transferOwnership",
      "outputs": [],
      "stateMutability": "nonpayable",
      "type": "function"
    },
    {
      "inputs": [],
      "name": "unpause",
      "outputs": [],
      "stateMutability": "nonpayable",
      "type": "function"
    }
  ],
  "transactionHash": "0x475190e92a8649f70707b51a35a5e47a2e146cce226109df744fa36e5ab1c14b",
  "args": [],
  "numDeployments": 1,
  "solcInputHash": "af7a2f234572bd7729a12923df5a4ffd",
  "bytecode": "0x608060405234801561001057600080fd5b50614e39806100206000396000f3fe6080604052600436106102935760003560e01c806373448c461161015a578063bdb9b1a9116100c1578063d547741f1161007a578063d547741f14610837578063e4623c1b14610857578063e63ab1e914610877578063e985e9c514610899578063edcbc0bd146108b9578063f2fde38b146108e657600080fd5b8063bdb9b1a914610734578063c1793c5814610768578063c6f4f0f014610795578063c87b56dd146107c3578063ca15c873146107e3578063d53913931461080357600080fd5b8063a217fddf11610113578063a217fddf14610645578063a22cb4651461065a578063a6487c531461067a578063ab866db11461069a578063b88d4fde146106e7578063bb3bafd61461070757600080fd5b806373448c46146105a75780638456cb59146105bc5780638da5cb5b146105d15780639010d07c146105f057806391d148541461061057806395d89b411461063057600080fd5b80632f745c59116101fe5780634f6ccce7116101b75780634f6ccce7146105065780635a252ffe146105265780635c975abb146105395780636352211e1461055257806370a0823114610572578063715018a61461059257600080fd5b80632f745c591461045157806330176e131461047157806336568abe146104915780633f4ba83a146104b157806342842e0e146104c657806342966c68146104e657600080fd5b80631900136611610250578063190013661461038157806319a458ae146103a15780631c7e78f3146103c157806323b872dd146103e1578063248a9ca3146104015780632f2ff15d1461043157600080fd5b806301ffc9a71461029857806306fdde03146102cd578063081812fc146102ef578063095ea7b3146103275780630e0941371461034957806318160ddd1461036c575b600080fd5b3480156102a457600080fd5b506102b86102b3366004614059565b610906565b60405190151581526020015b60405180910390f35b3480156102d957600080fd5b506102e2610917565b6040516102c491906140ce565b3480156102fb57600080fd5b5061030f61030a3660046140e1565b6109a9565b6040516001600160a01b0390911681526020016102c4565b34801561033357600080fd5b5061034761034236600461411f565b6109f5565b005b34801561035557600080fd5b5061035e610b06565b6040519081526020016102c4565b34801561037857600080fd5b5060fd5461035e565b34801561038d57600080fd5b5061034761039c3660046143b3565b610b3d565b3480156103ad57600080fd5b506103476103bc366004614416565b610bbb565b3480156103cd57600080fd5b506103476103dc3660046140e1565b610cf2565b3480156103ed57600080fd5b506103476103fc366004614467565b610db6565b34801561040d57600080fd5b5061035e61041c3660046140e1565b60009081526065602052604090206001015490565b34801561043d57600080fd5b5061034761044c3660046144a8565b610de8565b34801561045d57600080fd5b5061035e61046c36600461411f565b610e0d565b34801561047d57600080fd5b5061034761048c3660046144cd565b610ea3565b34801561049d57600080fd5b506103476104ac3660046144a8565b610f1e565b3480156104bd57600080fd5b50610347610f98565b3480156104d257600080fd5b506103476104e1366004614467565b61102e565b3480156104f257600080fd5b506103476105013660046140e1565b611049565b34801561051257600080fd5b5061035e6105213660046140e1565b611143565b610347610534366004614501565b6111d6565b34801561054557600080fd5b5061015f5460ff166102b8565b34801561055e57600080fd5b5061030f61056d3660046140e1565b611389565b34801561057e57600080fd5b5061035e61058d36600461459b565b611400565b34801561059e57600080fd5b50610347611487565b3480156105b357600080fd5b5061035e611499565b3480156105c857600080fd5b506103476114a5565b3480156105dd57600080fd5b5061025b546001600160a01b031661030f565b3480156105fc57600080fd5b5061030f61060b3660046145b8565b611537565b34801561061c57600080fd5b506102b861062b3660046144a8565b611556565b34801561063c57600080fd5b506102e2611581565b34801561065157600080fd5b5061035e600081565b34801561066657600080fd5b506103476106753660046145da565b611590565b34801561068657600080fd5b5061034761069536600461460d565b611651565b3480156106a657600080fd5b506106ce7fe42093a63818e0c931c15fda9036d0d8995a638e7acfabc8355a4789766e8de981565b6040516001600160e01b031990911681526020016102c4565b3480156106f357600080fd5b50610347610702366004614694565b61179f565b34801561071357600080fd5b506107276107223660046140e1565b6117d1565b6040516102c491906146f3565b34801561074057600080fd5b506106ce7fee40ffc1ec8332b0837bd418921ada6378fb242be0d51d747626add0fc93894b81565b34801561077457600080fd5b506107886107833660046140e1565b61185a565b6040516102c4919061474b565b3480156107a157600080fd5b5061035e6107b03660046140e1565b60009081526102c1602052604090205490565b3480156107cf57600080fd5b506102e26107de3660046140e1565b61197e565b3480156107ef57600080fd5b5061035e6107fe3660046140e1565b611989565b34801561080f57600080fd5b5061035e7f9f2df0fed2c77648de5860a4cc508cd0818c85b8b8a1ab4ceeef8d981c8956a681565b34801561084357600080fd5b506103476108523660046144a8565b6119a0565b34801561086357600080fd5b5061034761087236600461478f565b6119c5565b34801561088357600080fd5b5061035e600080516020614dc483398151915281565b3480156108a557600080fd5b506102b86108b436600461481f565b611a04565b3480156108c557600080fd5b506108d96108d43660046140e1565b611a32565b6040516102c4919061484d565b3480156108f257600080fd5b5061034761090136600461459b565b611b59565b600061091182611bcf565b92915050565b606060c980546109269061488e565b80601f01602080910402602001604051908101604052809291908181526020018280546109529061488e565b801561099f5780601f106109745761010080835404028352916020019161099f565b820191906000526020600020905b81548152906001019060200180831161098257829003601f168201915b5050505050905090565b60006109b482611bda565b6109d95760405162461bcd60e51b81526004016109d0906148c9565b60405180910390fd5b50600090815260cd60205260409020546001600160a01b031690565b6000610a0082611389565b9050806001600160a01b0316836001600160a01b03161415610a6e5760405162461bcd60e51b815260206004820152602160248201527f4552433732313a20617070726f76616c20746f2063757272656e74206f776e656044820152603960f91b60648201526084016109d0565b336001600160a01b0382161480610a8a5750610a8a8133611a04565b610af75760405162461bcd60e51b815260206004820152603860248201527f4552433732313a20617070726f76652063616c6c6572206973206e6f74206f776044820152771b995c881b9bdc88185c1c1c9bdd995908199bdc88185b1b60421b60648201526084016109d0565b610b018383611bf7565b505050565b6000610b126101f55490565b60011415610b2757506101f55490565b905090565b6001610b336101f55490565b610b22919061492b565b8251610b4890611bda565b15610b5c57610b018282856000015161102e565b82604001516001600160a01b0316826001600160a01b031614610bb55760405162461bcd60e51b81526020600482015260116024820152703bb937b7339037b93232b91036b0b5b2b960791b60448201526064016109d0565b610b0183825b6040805160008152602080820180845282519020908501519092610bdf9201614942565b604051602081830303815290604052805190602001201415610c135760405162461bcd60e51b81526004016109d09061495e565b815160601c3380821480610c2c5750610c2c8282611a04565b610c485760405162461bcd60e51b81526004016109d09061498f565b610c56838560000151611c65565b60408401516001600160a01b03163314610c8557610c858460400151610c7b86611e72565b8660800151611fce565b60608401515115610ca257610ca284600001518560600151611fd9565b8360000151836001600160a01b03167fe7cd4ce7f2a465edc730269a1305e8a48bad821e8fb7e152ec413829c01a53c48660200151604051610ce491906140ce565b60405180910390a350505050565b33610cfc82611389565b6001600160a01b031614610d605760405162461bcd60e51b815260206004820152602560248201527f43616c6c6572206d75737420626520746865206f776e6572206f6620746865206044820152643a37b5b2b760d91b60648201526084016109d0565b610d698161220e565b60008181526102c06020526040908190209051829133917f544b1d1249133c50ce89743ed1ca34a815bd50d42b71e6d331a1ac560013a8ec91610dab916149e0565b60405180910390a350565b610dc1335b8261223c565b610ddd5760405162461bcd60e51b81526004016109d09061498f565b610b01838383612306565b600082815260656020526040902060010154610e038161249f565b610b0183836124a9565b6000610e1883611400565b8210610e7a5760405162461bcd60e51b815260206004820152602b60248201527f455243373231456e756d657261626c653a206f776e657220696e646578206f7560448201526a74206f6620626f756e647360a81b60648201526084016109d0565b506001600160a01b0391909116600090815260fb60209081526040808320938352929052205490565b610eae600033611556565b610f065760405162461bcd60e51b815260206004820152602360248201527f6d75737420686176652041444d494e20726f6c6520746f206368616e6765207460448201526268697360e81b60648201526084016109d0565b8051610f1a906101f6906020840190613f74565b5050565b6001600160a01b0381163314610f8e5760405162461bcd60e51b815260206004820152602f60248201527f416363657373436f6e74726f6c3a2063616e206f6e6c792072656e6f756e636560448201526e103937b632b9903337b91039b2b63360891b60648201526084016109d0565b610f1a82826124cb565b610fb0600080516020614dc483398151915233611556565b611024576040805162461bcd60e51b81526020600482015260248101919091527f4552433732315072657365744d696e7465725061757365724175746f49643a2060448201527f6d75737420686176652070617573657220726f6c6520746f20756e706175736560648201526084016109d0565b61102c6124ed565b565b610b018383836040518060200160405280600081525061179f565b61105281611bda565b6110c957606081901c3381146110c05760405162461bcd60e51b815260206004820152602d60248201527f4552433732314275726e61626c653a2063616c6c6572206973206e6f74206f7760448201526c3732b916103737ba10313ab93760991b60648201526084016109d0565b610f1a82612540565b6110d233610dbb565b6111375760405162461bcd60e51b815260206004820152603060248201527f4552433732314275726e61626c653a2063616c6c6572206973206e6f74206f7760448201526f1b995c881b9bdc88185c1c1c9bdd995960821b60648201526084016109d0565b6111408161255b565b50565b600061114e60fd5490565b82106111b15760405162461bcd60e51b815260206004820152602c60248201527f455243373231456e756d657261626c653a20676c6f62616c20696e646578206f60448201526b7574206f6620626f756e647360a01b60648201526084016109d0565b60fd82815481106111c4576111c4614a88565b90600052602060002001549050919050565b600261022954141561122a5760405162461bcd60e51b815260206004820152601f60248201527f5265656e7472616e637947756172643a207265656e7472616e742063616c6c0060448201526064016109d0565b6002610229556001600160a01b03841661127a5760405162461bcd60e51b8152602060048201526011602482015270746f2063616e277420626520656d70747960781b60448201526064016109d0565b604080516000815260208101808352815190209161129a91859101614942565b6040516020818303038152906040528051906020012014156112ce5760405162461bcd60e51b81526004016109d09061495e565b6112d784612564565b60006112e1610b06565b8451909150156112f5576112f58185611fd9565b604080516000815260208101808352815190209161131591859101614942565b604051602081830303815290604052805190602001201461133a5761133a8183612586565b80856001600160a01b03167fe7cd4ce7f2a465edc730269a1305e8a48bad821e8fb7e152ec413829c01a53c48560405161137491906140ce565b60405180910390a35050600161022955505050565b600081815260cb60205260408120546001600160a01b0316806109115760405162461bcd60e51b815260206004820152602960248201527f4552433732313a206f776e657220717565727920666f72206e6f6e657869737460448201526832b73a103a37b5b2b760b91b60648201526084016109d0565b60006001600160a01b03821661146b5760405162461bcd60e51b815260206004820152602a60248201527f4552433732313a2062616c616e636520717565727920666f7220746865207a65604482015269726f206164647265737360b01b60648201526084016109d0565b506001600160a01b0316600090815260cc602052604090205490565b61148f612609565b61102c6000612664565b6000610b226101f55490565b6114bd600080516020614dc483398151915233611556565b61152f5760405162461bcd60e51b815260206004820152603e60248201527f4552433732315072657365744d696e7465725061757365724175746f49643a2060448201527f6d75737420686176652070617573657220726f6c6520746f207061757365000060648201526084016109d0565b61102c6126b7565b600082815260976020526040812061154f90836126f5565b9392505050565b60009182526065602090815260408084206001600160a01b0393909316845291905290205460ff1690565b606060ca80546109269061488e565b6001600160a01b0382163314156115e55760405162461bcd60e51b815260206004820152601960248201527822a9219b99189d1030b8383937bb32903a379031b0b63632b960391b60448201526064016109d0565b33600081815260ce602090815260408083206001600160a01b03871680855290835292819020805460ff191686151590811790915590519081529192917f17307eab39ab6107e8899845ad3d59bd9653f200f220920489ca2b5937696c31910160405180910390a35050565b600054610100900460ff16158080156116715750600054600160ff909116105b80611692575061168030612701565b158015611692575060005460ff166001145b6116ae5760405162461bcd60e51b81526004016109d090614a9e565b6000805460ff1916600117905580156116d1576000805461ff0019166101001790555b6116d9612710565b6116e1612710565b6116e9612710565b6116f1612710565b6116f9612737565b611701612737565b6117096127ed565b611711612737565b611719612737565b6117238484612821565b61172c82612901565b611734612a29565b61175d7fe42093a63818e0c931c15fda9036d0d8995a638e7acfabc8355a4789766e8de9612a59565b611765612ad9565b8015611799576000805461ff001916905560405160018152600080516020614da48339815191529060200160405180910390a15b50505050565b6117a9338361223c565b6117c55760405162461bcd60e51b81526004016109d09061498f565b61179984848484612b1b565b60606102bf6000838152602001908152602001600020805480602002602001604051908101604052809291908181526020016000905b8282101561184f576000848152602090819020604080518082019091526002850290910180546001600160a01b03168252600190810154828401529083529092019101611807565b505050509050919050565b60008181526102bf60209081526040808320805482518185028101850190935280835260609493849084015b828210156118ce576000848152602090819020604080518082019091526002850290910180546001600160a01b03168252600190810154828401529083529092019101611886565b505050509050600081516001600160401b038111156118ef576118ef61414b565b604051908082528060200260200182016040528015611918578160200160208202803683370190505b50825190915060005b818110156119745783818151811061193b5761193b614a88565b60200260200101516020015183828151811061195957611959614a88565b602090810291909101015261196d81614aec565b9050611921565b5090949350505050565b606061091182612b4e565b600081815260976020526040812061091190612cb1565b6000828152606560205260409020600101546119bb8161249f565b610b0183836124cb565b805160005b81811015610b01576119f48382815181106119e7576119e7614a88565b6020026020010151611049565b6119fd81614aec565b90506119ca565b6001600160a01b03918216600090815260ce6020908152604080832093909416825291909152205460ff1690565b60008181526102bf60209081526040808320805482518185028101850190935280835260609493849084015b82821015611aa6576000848152602090819020604080518082019091526002850290910180546001600160a01b03168252600190810154828401529083529092019101611a5e565b505050509050600081516001600160401b03811115611ac757611ac761414b565b604051908082528060200260200182016040528015611af0578160200160208202803683370190505b50825190915060005b8181101561197457838181518110611b1357611b13614a88565b602002602001015160000151838281518110611b3157611b31614a88565b6001600160a01b0390921660209283029190910190910152611b5281614aec565b9050611af9565b611b61612609565b6001600160a01b038116611bc65760405162461bcd60e51b815260206004820152602660248201527f4f776e61626c653a206e6577206f776e657220697320746865207a65726f206160448201526564647265737360d01b60648201526084016109d0565b61114081612664565b600061091182612cbb565b600090815260cb60205260409020546001600160a01b0316151590565b600081815260cd6020526040902080546001600160a01b0319166001600160a01b0384169081179091558190611c2c82611389565b6001600160a01b03167f8c5be1e5ebec7d5bd14f71427d1e84f3dd0314c0f7b2291e5b200ac8c7c3b92560405160405180910390a45050565b6001600160a01b038216611cbb5760405162461bcd60e51b815260206004820181905260248201527f4552433732313a206d696e7420746f20746865207a65726f206164647265737360448201526064016109d0565b600081815260cf602052604090205460ff1615611d115760405162461bcd60e51b81526020600482015260146024820152731d1bdad95b88185b1c9958591e48189d5c9b995960621b60448201526064016109d0565b611d1a81611bda565b15611d675760405162461bcd60e51b815260206004820152601c60248201527f4552433732313a20746f6b656e20616c7265616479206d696e7465640000000060448201526064016109d0565b611d7360008383612ced565b6001600160a01b038216600090815260cc60205260408120805460019290611d9c908490614b07565b9091555050600081815260cb6020526040902080546001600160a01b0319166001600160a01b038416908117909155606082901c908114801590611de857506001600160a01b03811615155b15611e475760405182906001600160a01b03831690600090600080516020614de4833981519152908290a481836001600160a01b0316826001600160a01b0316600080516020614de483398151915260405160405180910390a4505050565b60405182906001600160a01b03851690600090600080516020614de4833981519152908290a4505050565b6000808260600151516001600160401b03811115611e9257611e9261414b565b604051908082528060200260200182016040528015611ebb578160200160208202803683370190505b50905060005b836060015151811015611f2157611ef484606001518281518110611ee757611ee7614a88565b6020026020010151612cf8565b828281518110611f0657611f06614a88565b6020908102919091010152611f1a81614aec565b9050611ec1565b507fedab7f798bf7f1a53a8819fe5275af5acc7b09d2ea9284b3858814107c29f3ba8360000151846020015180519060200120856040015184604051602001611f6a9190614b1f565b60408051601f1981840301815282825280516020918201209083019690965281019390935260608301919091526001600160a01b0316608082015260a081019190915260c00160405160208183030381529060405280519060200120915050919050565b610b01838383612d6b565b611fe282611bda565b611ffe5760405162461bcd60e51b81526004016109d0906148c9565b8051600090815b818110156121af5760006001600160a01b031684828151811061202a5761202a614a88565b6020026020010151600001516001600160a01b0316141561208d5760405162461bcd60e51b815260206004820152601b60248201527f526563697069656e742073686f756c642062652070726573656e74000000000060448201526064016109d0565b60008482815181106120a1576120a1614a88565b602002602001015160200151116121055760405162461bcd60e51b815260206004820152602260248201527f526f79616c746965732076616c75652073686f756c6420626520706f73697469604482015261766560f01b60648201526084016109d0565b83818151811061211757612117614a88565b6020026020010151602001518361212e9190614b07565b92506102bf600086815260200190815260200160002084828151811061215657612156614a88565b602090810291909101810151825460018082018555600094855293839020825160029092020180546001600160a01b0319166001600160a01b039092169190911781559101519101556121a881614aec565b9050612005565b506113888211156117995760405162461bcd60e51b815260206004820152602360248201527f526f79616c747920746f74616c2076616c75652073686f756c64206265203c2060448201526235302560e81b60648201526084016109d0565b60008181526102c16020526040902054612229906001614b07565b60009182526102c1602052604090912055565b600061224782611bda565b6122a85760405162461bcd60e51b815260206004820152602c60248201527f4552433732313a206f70657261746f7220717565727920666f72206e6f6e657860448201526b34b9ba32b73a103a37b5b2b760a11b60648201526084016109d0565b60006122b383611389565b9050806001600160a01b0316846001600160a01b031614806122ee5750836001600160a01b03166122e3846109a9565b6001600160a01b0316145b806122fe57506122fe8185611a04565b949350505050565b826001600160a01b031661231982611389565b6001600160a01b0316146123815760405162461bcd60e51b815260206004820152602960248201527f4552433732313a207472616e73666572206f6620746f6b656e2074686174206960448201526839903737ba1037bbb760b91b60648201526084016109d0565b6001600160a01b0382166123e35760405162461bcd60e51b8152602060048201526024808201527f4552433732313a207472616e7366657220746f20746865207a65726f206164646044820152637265737360e01b60648201526084016109d0565b6123ee838383612ced565b6123f9600082611bf7565b6001600160a01b038316600090815260cc6020526040812080546001929061242290849061492b565b90915550506001600160a01b038216600090815260cc60205260408120805460019290612450908490614b07565b9091555050600081815260cb602052604080822080546001600160a01b0319166001600160a01b038681169182179092559151849391871691600080516020614de483398151915291a4505050565b6111408133612ef8565b6124b38282612f5c565b6000828152609760205260409020610b019082612fe2565b6124d58282612ff7565b6000828152609760205260409020610b01908261305e565b6124f5613073565b61015f805460ff191690557f5db9ee0a495bf2e6ff9c91a7834c1ba4fdd244a5e8aa4e537bd38aeae4b073aa335b6040516001600160a01b03909116815260200160405180910390a1565b600090815260cf60205260409020805460ff19166001179055565b611140816130bd565b612577816125726101f55490565b611c65565b6111406101f580546001019055565b60c88151106125e95760405162461bcd60e51b815260206004820152602960248201527f4c6f636b20636f6e74656e74206279746573206c656e6774682073686f756c646044820152680206265203c203230360bc1b60648201526084016109d0565b60008281526102c0602090815260409091208251610b0192840190613f74565b61025b546001600160a01b0316331461102c5760405162461bcd60e51b815260206004820181905260248201527f4f776e61626c653a2063616c6c6572206973206e6f7420746865206f776e657260448201526064016109d0565b61025b80546001600160a01b038381166001600160a01b0319831681179093556040519116919082907f8be0079c531659141344cd1fd0a4f28419497f9722a3daafe3b4186f6b6457e090600090a35050565b6126bf6130ff565b61015f805460ff191660011790557f62e78cea01bee320cd4e420270b5ea74000d11b0c9f74754ebdbfc544b05a2586125233390565b600061154f8383613146565b6001600160a01b03163b151590565b600054610100900460ff1661102c5760405162461bcd60e51b81526004016109d090614b55565b600054610100900460ff16158080156127575750600054600160ff909116105b80612778575061276630612701565b158015612778575060005460ff166001145b6127945760405162461bcd60e51b81526004016109d090614a9e565b6000805460ff1916600117905580156127b7576000805461ff0019166101001790555b8015611140576000805461ff001916905560405160018152600080516020614da48339815191529060200160405180910390a150565b600054610100900460ff166128145760405162461bcd60e51b81526004016109d090614b55565b61015f805460ff19169055565b600054610100900460ff16158080156128415750600054600160ff909116105b80612862575061285030612701565b158015612862575060005460ff166001145b61287e5760405162461bcd60e51b81526004016109d090614a9e565b6000805460ff1916600117905580156128a1576000805461ff0019166101001790555b82516128b49060c9906020860190613f74565b5081516128c89060ca906020850190613f74565b508015610b01576000805461ff001916905560405160018152600080516020614da48339815191529060200160405180910390a1505050565b600054610100900460ff16158080156129215750600054600160ff909116105b80612942575061293030612701565b158015612942575060005460ff166001145b61295e5760405162461bcd60e51b81526004016109d090614a9e565b6000805460ff191660011790558015612981576000805461ff0019166101001790555b8151612995906101f6906020850190613f74565b506129a1600033613170565b6129cb7f9f2df0fed2c77648de5860a4cc508cd0818c85b8b8a1ab4ceeef8d981c8956a633613170565b6129e3600080516020614dc483398151915233613170565b6129f26101f580546001019055565b8015610f1a576000805461ff001916905560405160018152600080516020614da48339815191529060200160405180910390a15050565b600054610100900460ff16612a505760405162461bcd60e51b81526004016109d090614b55565b61102c33612664565b6001600160e01b03198082161415612ab35760405162461bcd60e51b815260206004820152601c60248201527f4552433136353a20696e76616c696420696e746572666163652069640000000060448201526064016109d0565b6001600160e01b031916600090815261028d60205260409020805460ff19166001179055565b61102c604051806040016040528060078152602001664d696e7437323160c81b815250604051806040016040528060018152602001603160f81b81525061317a565b612b26848484612306565b612b32848484846131bd565b6117995760405162461bcd60e51b81526004016109d090614ba0565b6060612b5982611bda565b612bbf5760405162461bcd60e51b815260206004820152603160248201527f45524337323155524953746f726167653a2055524920717565727920666f72206044820152703737b732bc34b9ba32b73a103a37b5b2b760791b60648201526084016109d0565b60008281526101c3602052604081208054612bd99061488e565b80601f0160208091040260200160405190810160405280929190818152602001828054612c059061488e565b8015612c525780601f10612c2757610100808354040283529160200191612c52565b820191906000526020600020905b815481529060010190602001808311612c3557829003601f168201915b505050505090506000612c636132d1565b9050805160001415612c76575092915050565b815115612ca8578082604051602001612c90929190614bf2565b60405160208183030381529060405292505050919050565b6122fe846132e1565b6000610911825490565b6000612cc6826133ab565b806109115750506001600160e01b031916600090815261028d602052604090205460ff1690565b610b018383836133b6565b8051602080830151604051600093612d4e937fce8c43412600341b06881c0113c6a93eb2fdd51da73426cee150319daf4e1909939192019283526001600160a01b03919091166020830152604082015260600190565b604051602081830303815290604052805190602001209050919050565b6000612d7683613429565b90506000825160411415612d9157612d8e8284613477565b90505b846001600160a01b0316816001600160a01b031614612ef157612dbc856001600160a01b0316612701565b15612ea657604051630b135d3f60e11b808252906001600160a01b03871690631626ba7e90612df19086908890600401614c21565b60206040518083038186803b158015612e0957600080fd5b505afa158015612e1d573d6000803e3d6000fd5b505050506040513d601f19601f82011682018060405250810190612e419190614c3a565b6001600160e01b031916146040518060400160405280601c81526020017f7369676e617475726520766572696669636174696f6e206572726f720000000081525090612ea05760405162461bcd60e51b81526004016109d091906140ce565b50612ef1565b604080518082018252601c81527f7369676e617475726520766572696669636174696f6e206572726f72000000006020820152905162461bcd60e51b81526109d091906004016140ce565b5050505050565b612f028282611556565b610f1a57612f1a816001600160a01b0316601461349b565b612f2583602061349b565b604051602001612f36929190614c57565b60408051601f198184030181529082905262461bcd60e51b82526109d0916004016140ce565b612f668282611556565b610f1a5760008281526065602090815260408083206001600160a01b03851684529091529020805460ff19166001179055612f9e3390565b6001600160a01b0316816001600160a01b0316837f2f8788117e7eff1d82e926ec794901d17c78024a50270940304540a733656f0d60405160405180910390a45050565b600061154f836001600160a01b038416613636565b6130018282611556565b15610f1a5760008281526065602090815260408083206001600160a01b0385168085529252808320805460ff1916905551339285917ff6391f5c32d9c69d2a47ea670b442974b53935d1edc7fd64eb21e047a839171b9190a45050565b600061154f836001600160a01b038416613685565b61015f5460ff1661102c5760405162461bcd60e51b815260206004820152601460248201527314185d5cd8589b194e881b9bdd081c185d5cd95960621b60448201526064016109d0565b6130c681613778565b60008181526101c36020526040902080546130e09061488e565b1590506111405760008181526101c36020526040812061114091613ff8565b61015f5460ff161561102c5760405162461bcd60e51b815260206004820152601060248201526f14185d5cd8589b194e881c185d5cd95960821b60448201526064016109d0565b600082600001828154811061315d5761315d614a88565b9060005260206000200154905092915050565b610f1a82826124a9565b600054610100900460ff166131a15760405162461bcd60e51b81526004016109d090614b55565b8151602092830120815191909201206102f7919091556102f855565b60006131d1846001600160a01b0316612701565b156132c657604051630a85bd0160e11b81526001600160a01b0385169063150b7a0290613208903390899088908890600401614cc6565b602060405180830381600087803b15801561322257600080fd5b505af1925050508015613252575060408051601f3d908101601f1916820190925261324f91810190614c3a565b60015b6132ac573d808015613280576040519150601f19603f3d011682016040523d82523d6000602084013e613285565b606091505b5080516132a45760405162461bcd60e51b81526004016109d090614ba0565b805181602001fd5b6001600160e01b031916630a85bd0160e11b1490506122fe565b506001949350505050565b60606101f680546109269061488e565b60606132ec82611bda565b6133505760405162461bcd60e51b815260206004820152602f60248201527f4552433732314d657461646174613a2055524920717565727920666f72206e6f60448201526e3732bc34b9ba32b73a103a37b5b2b760891b60648201526084016109d0565b600061335a6132d1565b9050600081511161337a576040518060200160405280600081525061154f565b8061338484613819565b604051602001613395929190614bf2565b6040516020818303038152906040529392505050565b600061091182613916565b6133c183838361393b565b61015f5460ff1615610b015760405162461bcd60e51b815260206004820152602b60248201527f4552433732315061757361626c653a20746f6b656e207472616e73666572207760448201526a1a1a5b19481c185d5cd95960aa1b60648201526084016109d0565b60006109116134366139f3565b8360405161190160f01b6020820152602281018390526042810182905260009060620160405160208183030381529060405280519060200120905092915050565b60008060006134868585613a70565b9150915061349381613ab6565b509392505050565b606060006134aa836002614d03565b6134b5906002614b07565b6001600160401b038111156134cc576134cc61414b565b6040519080825280601f01601f1916602001820160405280156134f6576020820181803683370190505b509050600360fc1b8160008151811061351157613511614a88565b60200101906001600160f81b031916908160001a905350600f60fb1b8160018151811061354057613540614a88565b60200101906001600160f81b031916908160001a9053506000613564846002614d03565b61356f906001614b07565b90505b60018111156135e7576f181899199a1a9b1b9c1cb0b131b232b360811b85600f16601081106135a3576135a3614a88565b1a60f81b8282815181106135b9576135b9614a88565b60200101906001600160f81b031916908160001a90535060049490941c936135e081614d22565b9050613572565b50831561154f5760405162461bcd60e51b815260206004820181905260248201527f537472696e67733a20686578206c656e67746820696e73756666696369656e7460448201526064016109d0565b600081815260018301602052604081205461367d57508154600181810184556000848152602080822090930184905584548482528286019093526040902091909155610911565b506000610911565b6000818152600183016020526040812054801561376e5760006136a960018361492b565b85549091506000906136bd9060019061492b565b90508181146137225760008660000182815481106136dd576136dd614a88565b906000526020600020015490508087600001848154811061370057613700614a88565b6000918252602080832090910192909255918252600188019052604090208390555b855486908061373357613733614d39565b600190038181906000526020600020016000905590558560010160008681526020019081526020016000206000905560019350505050610911565b6000915050610911565b600061378382611389565b905061379181600084612ced565b61379c600083611bf7565b6001600160a01b038116600090815260cc602052604081208054600192906137c590849061492b565b9091555050600082815260cb6020526040902080546001600160a01b03191690556137ef82612540565b60405182906000906001600160a01b03841690600080516020614de4833981519152908390a45050565b60608161383d5750506040805180820190915260018152600360fc1b602082015290565b8160005b8115613867578061385181614aec565b91506138609050600a83614d65565b9150613841565b6000816001600160401b038111156138815761388161414b565b6040519080825280601f01601f1916602001820160405280156138ab576020820181803683370190505b5090505b84156122fe576138c060018361492b565b91506138cd600a86614d79565b6138d8906030614b07565b60f81b8183815181106138ed576138ed614a88565b60200101906001600160f81b031916908160001a90535061390f600a86614d65565b94506138af565b60006001600160e01b0319821663780e9d6360e01b1480610911575061091182613c6c565b6001600160a01b038316613996576139918160fd8054600083815260fe60205260408120829055600182018355919091527f9346ac6dd7de6b96975fec380d4d994c4c12e6a8897544f22915316cc6cca2800155565b6139b9565b816001600160a01b0316836001600160a01b0316146139b9576139b98382613cac565b6001600160a01b0382166139d057610b0181613d49565b826001600160a01b0316826001600160a01b031614610b0157610b018282613df8565b6000610b227f8b73c3c69bb8fe3d512ecc4cf759cc79239f7b179b0ffacaa9a75d522b39400f613a236102f75490565b6102f8546040805160208101859052908101839052606081018290524660808201523060a082015260009060c0016040516020818303038152906040528051906020012090509392505050565b600080825160411415613aa75760208301516040840151606085015160001a613a9b87828585613e3c565b94509450505050613aaf565b506000905060025b9250929050565b6000816004811115613aca57613aca614d8d565b1415613ad35750565b6001816004811115613ae757613ae7614d8d565b1415613b305760405162461bcd60e51b815260206004820152601860248201527745434453413a20696e76616c6964207369676e617475726560401b60448201526064016109d0565b6002816004811115613b4457613b44614d8d565b1415613b925760405162461bcd60e51b815260206004820152601f60248201527f45434453413a20696e76616c6964207369676e6174757265206c656e6774680060448201526064016109d0565b6003816004811115613ba657613ba6614d8d565b1415613bff5760405162461bcd60e51b815260206004820152602260248201527f45434453413a20696e76616c6964207369676e6174757265202773272076616c604482015261756560f01b60648201526084016109d0565b6004816004811115613c1357613c13614d8d565b14156111405760405162461bcd60e51b815260206004820152602260248201527f45434453413a20696e76616c6964207369676e6174757265202776272076616c604482015261756560f01b60648201526084016109d0565b60006001600160e01b031982166380ac58cd60e01b1480613c9d57506001600160e01b03198216635b5e139f60e01b145b80610911575061091182613f1f565b60006001613cb984611400565b613cc3919061492b565b600083815260fc6020526040902054909150808214613d16576001600160a01b038416600090815260fb60209081526040808320858452825280832054848452818420819055835260fc90915290208190555b50600091825260fc602090815260408084208490556001600160a01b03909416835260fb81528383209183525290812055565b60fd54600090613d5b9060019061492b565b600083815260fe602052604081205460fd8054939450909284908110613d8357613d83614a88565b906000526020600020015490508060fd8381548110613da457613da4614a88565b600091825260208083209091019290925582815260fe909152604080822084905585825281205560fd805480613ddc57613ddc614d39565b6001900381819060005260206000200160009055905550505050565b6000613e0383611400565b6001600160a01b03909316600090815260fb60209081526040808320868452825280832085905593825260fc9052919091209190915550565b6000806fa2a8918ca85bafe22016d0b997e4df60600160ff1b03831115613e695750600090506003613f16565b8460ff16601b14158015613e8157508460ff16601c14155b15613e925750600090506004613f16565b6040805160008082526020820180845289905260ff881692820192909252606081018690526080810185905260019060a0016020604051602081039080840390855afa158015613ee6573d6000803e3d6000fd5b5050604051601f1901519150506001600160a01b038116613f0f57600060019250925050613f16565b9150600090505b94509492505050565b60006001600160e01b03198216635a05180f60e01b148061091157506109118260006001600160e01b03198216637965db0b60e01b148061091157506301ffc9a760e01b6001600160e01b0319831614610911565b828054613f809061488e565b90600052602060002090601f016020900481019282613fa25760008555613fe8565b82601f10613fbb57805160ff1916838001178555613fe8565b82800160010185558215613fe8579182015b82811115613fe8578251825591602001919060010190613fcd565b50613ff492915061402e565b5090565b5080546140049061488e565b6000825580601f10614014575050565b601f01602090049060005260206000209081019061114091905b5b80821115613ff4576000815560010161402f565b6001600160e01b03198116811461114057600080fd5b60006020828403121561406b57600080fd5b813561154f81614043565b60005b83811015614091578181015183820152602001614079565b838111156117995750506000910152565b600081518084526140ba816020860160208601614076565b601f01601f19169290920160200192915050565b60208152600061154f60208301846140a2565b6000602082840312156140f357600080fd5b5035919050565b6001600160a01b038116811461114057600080fd5b803561411a816140fa565b919050565b6000806040838503121561413257600080fd5b823561413d816140fa565b946020939093013593505050565b634e487b7160e01b600052604160045260246000fd5b604080519081016001600160401b03811182821017156141835761418361414b565b60405290565b60405160a081016001600160401b03811182821017156141835761418361414b565b604051601f8201601f191681016001600160401b03811182821017156141d3576141d361414b565b604052919050565b600082601f8301126141ec57600080fd5b81356001600160401b038111156142055761420561414b565b614218601f8201601f19166020016141ab565b81815284602083860101111561422d57600080fd5b816020850160208301376000918101602001919091529392505050565b60006001600160401b038211156142635761426361414b565b5060051b60200190565b600082601f83011261427e57600080fd5b8135602061429361428e8361424a565b6141ab565b82815260069290921b840181019181810190868411156142b257600080fd5b8286015b848110156142fa57604081890312156142cf5760008081fd5b6142d7614161565b81356142e2816140fa565b815281850135858201528352918301916040016142b6565b509695505050505050565b600060a0828403121561431757600080fd5b61431f614189565b90508135815260208201356001600160401b038082111561433f57600080fd5b61434b858386016141db565b602084015261435c6040850161410f565b6040840152606084013591508082111561437557600080fd5b6143818583860161426d565b6060840152608084013591508082111561439a57600080fd5b506143a7848285016141db565b60808301525092915050565b6000806000606084860312156143c857600080fd5b83356001600160401b038111156143de57600080fd5b6143ea86828701614305565b93505060208401356143fb816140fa565b9150604084013561440b816140fa565b809150509250925092565b6000806040838503121561442957600080fd5b82356001600160401b0381111561443f57600080fd5b61444b85828601614305565b925050602083013561445c816140fa565b809150509250929050565b60008060006060848603121561447c57600080fd5b8335614487816140fa565b92506020840135614497816140fa565b929592945050506040919091013590565b600080604083850312156144bb57600080fd5b82359150602083013561445c816140fa565b6000602082840312156144df57600080fd5b81356001600160401b038111156144f557600080fd5b6122fe848285016141db565b6000806000806080858703121561451757600080fd5b8435614522816140fa565b935060208501356001600160401b038082111561453e57600080fd5b61454a8883890161426d565b9450604087013591508082111561456057600080fd5b61456c888389016141db565b9350606087013591508082111561458257600080fd5b5061458f878288016141db565b91505092959194509250565b6000602082840312156145ad57600080fd5b813561154f816140fa565b600080604083850312156145cb57600080fd5b50508035926020909101359150565b600080604083850312156145ed57600080fd5b82356145f8816140fa565b91506020830135801515811461445c57600080fd5b60008060006060848603121561462257600080fd5b83356001600160401b038082111561463957600080fd5b614645878388016141db565b9450602086013591508082111561465b57600080fd5b614667878388016141db565b9350604086013591508082111561467d57600080fd5b5061468a868287016141db565b9150509250925092565b600080600080608085870312156146aa57600080fd5b84356146b5816140fa565b935060208501356146c5816140fa565b92506040850135915060608501356001600160401b038111156146e757600080fd5b61458f878288016141db565b602080825282518282018190526000919060409081850190868401855b8281101561473e57815180516001600160a01b03168552860151868501529284019290850190600101614710565b5091979650505050505050565b6020808252825182820181905260009190848201906040850190845b8181101561478357835183529284019291840191600101614767565b50909695505050505050565b600060208083850312156147a257600080fd5b82356001600160401b038111156147b857600080fd5b8301601f810185136147c957600080fd5b80356147d761428e8261424a565b81815260059190911b820183019083810190878311156147f657600080fd5b928401925b82841015614814578335825292840192908401906147fb565b979650505050505050565b6000806040838503121561483257600080fd5b823561483d816140fa565b9150602083013561445c816140fa565b6020808252825182820181905260009190848201906040850190845b818110156147835783516001600160a01b031683529284019291840191600101614869565b600181811c908216806148a257607f821691505b602082108114156148c357634e487b7160e01b600052602260045260246000fd5b50919050565b6020808252602c908201527f4552433732313a20617070726f76656420717565727920666f72206e6f6e657860408201526b34b9ba32b73a103a37b5b2b760a11b606082015260800190565b634e487b7160e01b600052601160045260246000fd5b60008282101561493d5761493d614915565b500390565b60008251614954818460208701614076565b9190910192915050565b602080825260179082015276746f6b656e5552492063616e277420626520656d70747960481b604082015260600190565b60208082526031908201527f4552433732313a207472616e736665722063616c6c6572206973206e6f74206f6040820152701ddb995c881b9bdc88185c1c1c9bdd9959607a1b606082015260800190565b600060208083526000845481600182811c915080831680614a0257607f831692505b858310811415614a2057634e487b7160e01b85526022600452602485fd5b878601838152602001818015614a3d5760018114614a4e57614a79565b60ff19861682528782019650614a79565b60008b81526020902060005b86811015614a7357815484820152908501908901614a5a565b83019750505b50949998505050505050505050565b634e487b7160e01b600052603260045260246000fd5b6020808252602e908201527f496e697469616c697a61626c653a20636f6e747261637420697320616c72656160408201526d191e481a5b9a5d1a585b1a5e995960921b606082015260800190565b6000600019821415614b0057614b00614915565b5060010190565b60008219821115614b1a57614b1a614915565b500190565b815160009082906020808601845b83811015614b4957815185529382019390820190600101614b2d565b50929695505050505050565b6020808252602b908201527f496e697469616c697a61626c653a20636f6e7472616374206973206e6f74206960408201526a6e697469616c697a696e6760a81b606082015260800190565b60208082526032908201527f4552433732313a207472616e7366657220746f206e6f6e20455243373231526560408201527131b2b4bb32b91034b6b83632b6b2b73a32b960711b606082015260800190565b60008351614c04818460208801614076565b835190830190614c18818360208801614076565b01949350505050565b8281526040602082015260006122fe60408301846140a2565b600060208284031215614c4c57600080fd5b815161154f81614043565b76020b1b1b2b9b9a1b7b73a3937b61d1030b1b1b7bab73a1604d1b815260008351614c89816017850160208801614076565b7001034b99036b4b9b9b4b733903937b6329607d1b6017918401918201528351614cba816028840160208801614076565b01602801949350505050565b6001600160a01b0385811682528416602082015260408101839052608060608201819052600090614cf9908301846140a2565b9695505050505050565b6000816000190483118215151615614d1d57614d1d614915565b500290565b600081614d3157614d31614915565b506000190190565b634e487b7160e01b600052603160045260246000fd5b634e487b7160e01b600052601260045260246000fd5b600082614d7457614d74614d4f565b500490565b600082614d8857614d88614d4f565b500690565b634e487b7160e01b600052602160045260246000fdfe7f26b83ff96e1f2b6a682f133852f6798a09c465da95921460cefb384740249865d7a28e3265b37a6474929f336521b332c1681b933f6cb9f3376673440d862addf252ad1be2c89b69c2b068fc378daa952ba7f163c4a11628f55a4df523b3efa264697066735822122055567cdf75c324e706c8189a4c2b0cddc2c51a583c34080df1a50d0a7eae89db64736f6c63430008090033",
  "devdoc": {
    "events": {
      "LockedContentViewed(address,uint256,string)": {
        "params": {
          "lockedContent": "locked content queried",
          "msgSender": "user that triggered it",
          "tokenId": "token id queried"
        }
      },
      "Minted(address,uint256,string)": {
        "params": {
          "toAddress": "recipient of the mint",
          "tokenId": "token id of the mint",
          "tokenURI": "token uri of the token minted"
        }
      }
    },
    "kind": "dev",
    "methods": {
      "approve(address,uint256)": {
        "details": "See {IERC721-approve}."
      },
      "balanceOf(address)": {
        "details": "See {IERC721-balanceOf}."
      },
      "burn(uint256)": {
        "details": "Burns `tokenId`. See {ERC721-_burn}. Requirements: - The caller must own `tokenId` or be an approved operator."
      },
      "burnBatch(uint256[])": {
        "params": {
          "tokensId": "tokens to burn"
        }
      },
      "getApproved(uint256)": {
        "details": "See {IERC721-getApproved}."
      },
      "getCurrentLockedContentViewTracker(uint256)": {
        "params": {
          "tokenId": "token to query"
        },
        "returns": {
          "_0": "count locked content view count"
        }
      },
      "getLockedContent(uint256)": {
        "params": {
          "tokenId": "token to query"
        }
      },
      "getRoleAdmin(bytes32)": {
        "details": "Returns the admin role that controls `role`. See {grantRole} and {revokeRole}. To change a role's admin, use {_setRoleAdmin}."
      },
      "getRoleMember(bytes32,uint256)": {
        "details": "Returns one of the accounts that have `role`. `index` must be a value between 0 and {getRoleMemberCount}, non-inclusive. Role bearers are not sorted in any particular way, and their ordering may change at any point. WARNING: When using {getRoleMember} and {getRoleMemberCount}, make sure you perform all queries on the same block. See the following https://forum.openzeppelin.com/t/iterating-over-elements-on-enumerableset-in-openzeppelin-contracts/2296[forum post] for more information."
      },
      "getRoleMemberCount(bytes32)": {
        "details": "Returns the number of accounts that have `role`. Can be used together with {getRoleMember} to enumerate all bearers of a role."
      },
      "getRoyalties(uint256)": {
        "params": {
          "tokenId": "token to query"
        },
        "returns": {
          "_0": "royalties token royalties details"
        }
      },
      "getRoyaltiesBps(uint256)": {
        "details": "fee basis points 10000 = 100%",
        "params": {
          "tokenId": "token to query"
        },
        "returns": {
          "_0": "bps token royalties bps details"
        }
      },
      "getRoyaltiesRecipients(uint256)": {
        "params": {
          "tokenId": "token to query"
        },
        "returns": {
          "_0": "recipient token royalties recipients details"
        }
      },
      "grantRole(bytes32,address)": {
        "details": "Grants `role` to `account`. If `account` had not been already granted `role`, emits a {RoleGranted} event. Requirements: - the caller must have ``role``'s admin role. May emit a {RoleGranted} event."
      },
      "hasRole(bytes32,address)": {
        "details": "Returns `true` if `account` has been granted `role`."
      },
      "initialize(string,string,string)": {
        "params": {
          "name": "contract name",
          "symbol": "contract symbol",
          "uri": "contract uri"
        }
      },
      "isApprovedForAll(address,address)": {
        "details": "See {IERC721-isApprovedForAll}."
      },
      "mintAndTransfer((uint256,string,address,(address,uint256)[],bytes),address)": {
        "params": {
          "lazyMintData": "lazyMintData for token",
          "to": "recipient for token"
        }
      },
      "mintGhost(address,(address,uint256)[],string,string)": {
        "params": {
          "lockedcontent": "lockedcontent for token",
          "royalties": "royalties for token",
          "to": "recipient for token",
          "tokenURI": "tokenURI for token"
        }
      },
      "name()": {
        "details": "See {IERC721Metadata-name}."
      },
      "owner()": {
        "details": "Returns the address of the current owner."
      },
      "ownerOf(uint256)": {
        "details": "See {IERC721-ownerOf}."
      },
      "pause()": {
        "details": "Pauses all token transfers. See {ERC721Pausable} and {Pausable-_pause}. Requirements: - the caller must have the `PAUSER_ROLE`."
      },
      "paused()": {
        "details": "Returns true if the contract is paused, and false otherwise."
      },
      "renounceOwnership()": {
        "details": "Leaves the contract without owner. It will not be possible to call `onlyOwner` functions anymore. Can only be called by the current owner. NOTE: Renouncing ownership will leave the contract without an owner, thereby removing any functionality that is only available to the owner."
      },
      "renounceRole(bytes32,address)": {
        "details": "Revokes `role` from the calling account. Roles are often managed via {grantRole} and {revokeRole}: this function's purpose is to provide a mechanism for accounts to lose their privileges if they are compromised (such as when a trusted device is misplaced). If the calling account had been revoked `role`, emits a {RoleRevoked} event. Requirements: - the caller must be `account`. May emit a {RoleRevoked} event."
      },
      "revokeRole(bytes32,address)": {
        "details": "Revokes `role` from `account`. If `account` had been granted `role`, emits a {RoleRevoked} event. Requirements: - the caller must have ``role``'s admin role. May emit a {RoleRevoked} event."
      },
      "safeTransferFrom(address,address,uint256)": {
        "details": "See {IERC721-safeTransferFrom}."
      },
      "safeTransferFrom(address,address,uint256,bytes)": {
        "details": "See {IERC721-safeTransferFrom}."
      },
      "setApprovalForAll(address,bool)": {
        "details": "See {IERC721-setApprovalForAll}."
      },
      "supportsInterface(bytes4)": {
        "details": "See {IERC165-supportsInterface}.",
        "params": {
          "interfaceId": "interface id to query"
        },
        "returns": {
          "_0": "status interface id support status"
        }
      },
      "symbol()": {
        "details": "See {IERC721Metadata-symbol}."
      },
      "tokenByIndex(uint256)": {
        "details": "See {IERC721Enumerable-tokenByIndex}."
      },
      "tokenOfOwnerByIndex(address,uint256)": {
        "details": "See {IERC721Enumerable-tokenOfOwnerByIndex}."
      },
      "tokenURI(uint256)": {
        "details": "See {IERC721Metadata-tokenURI}."
      },
      "totalSupply()": {
        "details": "See {IERC721Enumerable-totalSupply}."
      },
      "transferFrom(address,address,uint256)": {
        "details": "See {IERC721-transferFrom}."
      },
      "transferFromOrMint((uint256,string,address,(address,uint256)[],bytes),address,address)": {
        "params": {
          "data": "lazyMintData for token",
          "from": "source for token",
          "to": "recipient for token"
        }
      },
      "transferOwnership(address)": {
        "details": "Transfers ownership of the contract to a new account (`newOwner`). Can only be called by the current owner."
      },
      "unpause()": {
        "details": "Unpauses all token transfers. See {ERC721Pausable} and {Pausable-_unpause}. Requirements: - the caller must have the `PAUSER_ROLE`."
      }
    },
    "version": 1
  },
  "userdoc": {
    "events": {
      "LockedContentViewed(address,uint256,string)": {
        "notice": "This event is emitted when a token locked content is viewed"
      },
      "Minted(address,uint256,string)": {
        "notice": "This event is emitted when a token is minted"
      }
    },
    "kind": "user",
    "methods": {
      "_GHOSTMARKET_NFT_ROYALTIES()": {
        "notice": "bytes4(keccak256(_GHOSTMARKET_NFT_ROYALTIES)) == 0xe42093a6"
      },
      "burnBatch(uint256[])": {
        "notice": "Bulk burn tokens"
      },
      "getCurrentLockedContentViewTracker(uint256)": {
        "notice": "Return locked content view count for a token"
      },
      "getLockedContent(uint256)": {
        "notice": "Trigger locked content event for a token"
      },
      "getRoyalties(uint256)": {
        "notice": "Return royalties for a token"
      },
      "getRoyaltiesBps(uint256)": {
        "notice": "Return royalties bps for a token"
      },
      "getRoyaltiesRecipients(uint256)": {
        "notice": "Return royalties recipients for a token"
      },
      "initialize(string,string,string)": {
        "notice": "Initialize the contract"
      },
      "mintAndTransfer((uint256,string,address,(address,uint256)[],bytes),address)": {
        "notice": "Lazy mint token"
      },
      "mintGhost(address,(address,uint256)[],string,string)": {
        "notice": "Mint token"
      },
      "supportsInterface(bytes4)": {
        "notice": "Return interface support for an interface id"
      },
      "transferFromOrMint((uint256,string,address,(address,uint256)[],bytes),address,address)": {
        "notice": "Transfer (if exists) or mint (if non existing) a token"
      }
    },
    "notice": "GhostMarket ERC721 contract with minting, burning, pause, royalties & lock content functions.",
    "version": 1
  },
  "storageLayout": {
    "storage": [
      {
        "astId": 721,
        "contract": "src/mint/GhostMarketERC721.sol:GhostMarketERC721",
        "label": "_initialized",
        "offset": 0,
        "slot": "0",
        "type": "t_uint8"
      },
      {
        "astId": 724,
        "contract": "src/mint/GhostMarketERC721.sol:GhostMarketERC721",
        "label": "_initializing",
        "offset": 1,
        "slot": "0",
        "type": "t_bool"
      },
      {
        "astId": 1353,
        "contract": "src/mint/GhostMarketERC721.sol:GhostMarketERC721",
        "label": "__gap",
        "offset": 0,
        "slot": "1",
        "type": "t_array(t_uint256)50_storage"
      },
      {
        "astId": 2306,
        "contract": "src/mint/GhostMarketERC721.sol:GhostMarketERC721",
        "label": "__gap",
        "offset": 0,
        "slot": "51",
        "type": "t_array(t_uint256)50_storage"
      },
      {
        "astId": 184,
        "contract": "src/mint/GhostMarketERC721.sol:GhostMarketERC721",
        "label": "_roles",
        "offset": 0,
        "slot": "101",
        "type": "t_mapping(t_bytes32,t_struct(RoleData)179_storage)"
      },
      {
        "astId": 483,
        "contract": "src/mint/GhostMarketERC721.sol:GhostMarketERC721",
        "label": "__gap",
        "offset": 0,
        "slot": "102",
        "type": "t_array(t_uint256)49_storage"
      },
      {
        "astId": 33,
        "contract": "src/mint/GhostMarketERC721.sol:GhostMarketERC721",
        "label": "_roleMembers",
        "offset": 0,
        "slot": "151",
        "type": "t_mapping(t_bytes32,t_struct(AddressSet)2631_storage)"
      },
      {
        "astId": 143,
        "contract": "src/mint/GhostMarketERC721.sol:GhostMarketERC721",
        "label": "__gap",
        "offset": 0,
        "slot": "152",
        "type": "t_array(t_uint256)49_storage"
      },
      {
        "astId": 3427,
        "contract": "src/mint/GhostMarketERC721.sol:GhostMarketERC721",
        "label": "_name",
        "offset": 0,
        "slot": "201",
        "type": "t_string_storage"
      },
      {
        "astId": 3429,
        "contract": "src/mint/GhostMarketERC721.sol:GhostMarketERC721",
        "label": "_symbol",
        "offset": 0,
        "slot": "202",
        "type": "t_string_storage"
      },
      {
        "astId": 3433,
        "contract": "src/mint/GhostMarketERC721.sol:GhostMarketERC721",
        "label": "_owners",
        "offset": 0,
        "slot": "203",
        "type": "t_mapping(t_uint256,t_address)"
      },
      {
        "astId": 3437,
        "contract": "src/mint/GhostMarketERC721.sol:GhostMarketERC721",
        "label": "_balances",
        "offset": 0,
        "slot": "204",
        "type": "t_mapping(t_address,t_uint256)"
      },
      {
        "astId": 3441,
        "contract": "src/mint/GhostMarketERC721.sol:GhostMarketERC721",
        "label": "_tokenApprovals",
        "offset": 0,
        "slot": "205",
        "type": "t_mapping(t_uint256,t_address)"
      },
      {
        "astId": 3447,
        "contract": "src/mint/GhostMarketERC721.sol:GhostMarketERC721",
        "label": "_operatorApprovals",
        "offset": 0,
        "slot": "206",
        "type": "t_mapping(t_address,t_mapping(t_address,t_bool))"
      },
      {
        "astId": 3451,
        "contract": "src/mint/GhostMarketERC721.sol:GhostMarketERC721",
        "label": "_burnedTokens",
        "offset": 0,
        "slot": "207",
        "type": "t_mapping(t_uint256,t_bool)"
      },
      {
        "astId": 4327,
        "contract": "src/mint/GhostMarketERC721.sol:GhostMarketERC721",
        "label": "__gap",
        "offset": 0,
        "slot": "208",
        "type": "t_array(t_uint256)43_storage"
      },
      {
        "astId": 5245,
        "contract": "src/mint/GhostMarketERC721.sol:GhostMarketERC721",
        "label": "_ownedTokens",
        "offset": 0,
        "slot": "251",
        "type": "t_mapping(t_address,t_mapping(t_uint256,t_uint256))"
      },
      {
        "astId": 5249,
        "contract": "src/mint/GhostMarketERC721.sol:GhostMarketERC721",
        "label": "_ownedTokensIndex",
        "offset": 0,
        "slot": "252",
        "type": "t_mapping(t_uint256,t_uint256)"
      },
      {
        "astId": 5252,
        "contract": "src/mint/GhostMarketERC721.sol:GhostMarketERC721",
        "label": "_allTokens",
        "offset": 0,
        "slot": "253",
        "type": "t_array(t_uint256)dyn_storage"
      },
      {
        "astId": 5256,
        "contract": "src/mint/GhostMarketERC721.sol:GhostMarketERC721",
        "label": "_allTokensIndex",
        "offset": 0,
        "slot": "254",
        "type": "t_mapping(t_uint256,t_uint256)"
      },
      {
        "astId": 5571,
        "contract": "src/mint/GhostMarketERC721.sol:GhostMarketERC721",
        "label": "__gap",
        "offset": 0,
        "slot": "255",
        "type": "t_array(t_uint256)46_storage"
      },
      {
        "astId": 5205,
        "contract": "src/mint/GhostMarketERC721.sol:GhostMarketERC721",
        "label": "__gap",
        "offset": 0,
        "slot": "301",
        "type": "t_array(t_uint256)50_storage"
      },
      {
        "astId": 886,
        "contract": "src/mint/GhostMarketERC721.sol:GhostMarketERC721",
        "label": "_paused",
        "offset": 0,
        "slot": "351",
        "type": "t_bool"
      },
      {
        "astId": 991,
        "contract": "src/mint/GhostMarketERC721.sol:GhostMarketERC721",
        "label": "__gap",
        "offset": 0,
        "slot": "352",
        "type": "t_array(t_uint256)49_storage"
      },
      {
        "astId": 5639,
        "contract": "src/mint/GhostMarketERC721.sol:GhostMarketERC721",
        "label": "__gap",
        "offset": 0,
        "slot": "401",
        "type": "t_array(t_uint256)50_storage"
      },
      {
        "astId": 5677,
        "contract": "src/mint/GhostMarketERC721.sol:GhostMarketERC721",
        "label": "_tokenURIs",
        "offset": 0,
        "slot": "451",
        "type": "t_mapping(t_uint256,t_string_storage)"
      },
      {
        "astId": 5795,
        "contract": "src/mint/GhostMarketERC721.sol:GhostMarketERC721",
        "label": "__gap",
        "offset": 0,
        "slot": "452",
        "type": "t_array(t_uint256)49_storage"
      },
      {
        "astId": 3089,
        "contract": "src/mint/GhostMarketERC721.sol:GhostMarketERC721",
        "label": "_tokenIdTracker",
        "offset": 0,
        "slot": "501",
        "type": "t_struct(Counter)1360_storage"
      },
      {
        "astId": 3091,
        "contract": "src/mint/GhostMarketERC721.sol:GhostMarketERC721",
        "label": "_baseTokenURI",
        "offset": 0,
        "slot": "502",
        "type": "t_string_storage"
      },
      {
        "astId": 3398,
        "contract": "src/mint/GhostMarketERC721.sol:GhostMarketERC721",
        "label": "__gap",
        "offset": 0,
        "slot": "503",
        "type": "t_array(t_uint256)50_storage"
      },
      {
        "astId": 1006,
        "contract": "src/mint/GhostMarketERC721.sol:GhostMarketERC721",
        "label": "_status",
        "offset": 0,
        "slot": "553",
        "type": "t_uint256"
      },
      {
        "astId": 1050,
        "contract": "src/mint/GhostMarketERC721.sol:GhostMarketERC721",
        "label": "__gap",
        "offset": 0,
        "slot": "554",
        "type": "t_array(t_uint256)49_storage"
      },
      {
        "astId": 593,
        "contract": "src/mint/GhostMarketERC721.sol:GhostMarketERC721",
        "label": "_owner",
        "offset": 0,
        "slot": "603",
        "type": "t_address"
      },
      {
        "astId": 713,
        "contract": "src/mint/GhostMarketERC721.sol:GhostMarketERC721",
        "label": "__gap",
        "offset": 0,
        "slot": "604",
        "type": "t_array(t_uint256)49_storage"
      },
      {
        "astId": 2218,
        "contract": "src/mint/GhostMarketERC721.sol:GhostMarketERC721",
        "label": "_supportedInterfaces",
        "offset": 0,
        "slot": "653",
        "type": "t_mapping(t_bytes4,t_bool)"
      },
      {
        "astId": 2262,
        "contract": "src/mint/GhostMarketERC721.sol:GhostMarketERC721",
        "label": "__gap",
        "offset": 0,
        "slot": "654",
        "type": "t_array(t_uint256)49_storage"
      },
      {
        "astId": 5024,
        "contract": "src/mint/GhostMarketERC721.sol:GhostMarketERC721",
        "label": "_royalties",
        "offset": 0,
        "slot": "703",
        "type": "t_mapping(t_uint256,t_array(t_struct(Part)6109_storage)dyn_storage)"
      },
      {
        "astId": 5029,
        "contract": "src/mint/GhostMarketERC721.sol:GhostMarketERC721",
        "label": "_lockedContent",
        "offset": 0,
        "slot": "704",
        "type": "t_mapping(t_uint256,t_string_storage)"
      },
      {
        "astId": 5034,
        "contract": "src/mint/GhostMarketERC721.sol:GhostMarketERC721",
        "label": "_lockedContentViewTracker",
        "offset": 0,
        "slot": "705",
        "type": "t_mapping(t_uint256,t_uint256)"
      },
      {
        "astId": 5038,
        "contract": "src/mint/GhostMarketERC721.sol:GhostMarketERC721",
        "label": "_metadataJson",
        "offset": 0,
        "slot": "706",
        "type": "t_mapping(t_uint256,t_string_storage)"
      },
      {
        "astId": 5040,
        "contract": "src/mint/GhostMarketERC721.sol:GhostMarketERC721",
        "label": "_payedMintFeesBalance",
        "offset": 0,
        "slot": "707",
        "type": "t_uint256"
      },
      {
        "astId": 5042,
        "contract": "src/mint/GhostMarketERC721.sol:GhostMarketERC721",
        "label": "_ghostmarketMintFees",
        "offset": 0,
        "slot": "708",
        "type": "t_uint256"
      },
      {
        "astId": 5080,
        "contract": "src/mint/GhostMarketERC721.sol:GhostMarketERC721",
        "label": "__gap",
        "offset": 0,
        "slot": "709",
        "type": "t_array(t_uint256)50_storage"
      },
      {
        "astId": 2051,
        "contract": "src/mint/GhostMarketERC721.sol:GhostMarketERC721",
        "label": "_HASHED_NAME",
        "offset": 0,
        "slot": "759",
        "type": "t_bytes32"
      },
      {
        "astId": 2053,
        "contract": "src/mint/GhostMarketERC721.sol:GhostMarketERC721",
        "label": "_HASHED_VERSION",
        "offset": 0,
        "slot": "760",
        "type": "t_bytes32"
      },
      {
        "astId": 2191,
        "contract": "src/mint/GhostMarketERC721.sol:GhostMarketERC721",
        "label": "__gap",
        "offset": 0,
        "slot": "761",
        "type": "t_array(t_uint256)50_storage"
      },
      {
        "astId": 3028,
        "contract": "src/mint/GhostMarketERC721.sol:GhostMarketERC721",
        "label": "__gap",
        "offset": 0,
        "slot": "811",
        "type": "t_array(t_uint256)50_storage"
      },
      {
        "astId": 5116,
        "contract": "src/mint/GhostMarketERC721.sol:GhostMarketERC721",
        "label": "__gap",
        "offset": 0,
        "slot": "861",
        "type": "t_array(t_uint256)48_storage"
      }
    ],
    "types": {
      "t_address": {
        "encoding": "inplace",
        "label": "address",
        "numberOfBytes": "20"
      },
      "t_address_payable": {
        "encoding": "inplace",
        "label": "address payable",
        "numberOfBytes": "20"
      },
      "t_array(t_bytes32)dyn_storage": {
        "base": "t_bytes32",
        "encoding": "dynamic_array",
        "label": "bytes32[]",
        "numberOfBytes": "32"
      },
      "t_array(t_struct(Part)6109_storage)dyn_storage": {
        "base": "t_struct(Part)6109_storage",
        "encoding": "dynamic_array",
        "label": "struct LibPart.Part[]",
        "numberOfBytes": "32"
      },
      "t_array(t_uint256)43_storage": {
        "base": "t_uint256",
        "encoding": "inplace",
        "label": "uint256[43]",
        "numberOfBytes": "1376"
      },
      "t_array(t_uint256)46_storage": {
        "base": "t_uint256",
        "encoding": "inplace",
        "label": "uint256[46]",
        "numberOfBytes": "1472"
      },
      "t_array(t_uint256)48_storage": {
        "base": "t_uint256",
        "encoding": "inplace",
        "label": "uint256[48]",
        "numberOfBytes": "1536"
      },
      "t_array(t_uint256)49_storage": {
        "base": "t_uint256",
        "encoding": "inplace",
        "label": "uint256[49]",
        "numberOfBytes": "1568"
      },
      "t_array(t_uint256)50_storage": {
        "base": "t_uint256",
        "encoding": "inplace",
        "label": "uint256[50]",
        "numberOfBytes": "1600"
      },
      "t_array(t_uint256)dyn_storage": {
        "base": "t_uint256",
        "encoding": "dynamic_array",
        "label": "uint256[]",
        "numberOfBytes": "32"
      },
      "t_bool": {
        "encoding": "inplace",
        "label": "bool",
        "numberOfBytes": "1"
      },
      "t_bytes32": {
        "encoding": "inplace",
        "label": "bytes32",
        "numberOfBytes": "32"
      },
      "t_bytes4": {
        "encoding": "inplace",
        "label": "bytes4",
        "numberOfBytes": "4"
      },
      "t_mapping(t_address,t_bool)": {
        "encoding": "mapping",
        "key": "t_address",
        "label": "mapping(address => bool)",
        "numberOfBytes": "32",
        "value": "t_bool"
      },
      "t_mapping(t_address,t_mapping(t_address,t_bool))": {
        "encoding": "mapping",
        "key": "t_address",
        "label": "mapping(address => mapping(address => bool))",
        "numberOfBytes": "32",
        "value": "t_mapping(t_address,t_bool)"
      },
      "t_mapping(t_address,t_mapping(t_uint256,t_uint256))": {
        "encoding": "mapping",
        "key": "t_address",
        "label": "mapping(address => mapping(uint256 => uint256))",
        "numberOfBytes": "32",
        "value": "t_mapping(t_uint256,t_uint256)"
      },
      "t_mapping(t_address,t_uint256)": {
        "encoding": "mapping",
        "key": "t_address",
        "label": "mapping(address => uint256)",
        "numberOfBytes": "32",
        "value": "t_uint256"
      },
      "t_mapping(t_bytes32,t_struct(AddressSet)2631_storage)": {
        "encoding": "mapping",
        "key": "t_bytes32",
        "label": "mapping(bytes32 => struct EnumerableSetUpgradeable.AddressSet)",
        "numberOfBytes": "32",
        "value": "t_struct(AddressSet)2631_storage"
      },
      "t_mapping(t_bytes32,t_struct(RoleData)179_storage)": {
        "encoding": "mapping",
        "key": "t_bytes32",
        "label": "mapping(bytes32 => struct AccessControlUpgradeable.RoleData)",
        "numberOfBytes": "32",
        "value": "t_struct(RoleData)179_storage"
      },
      "t_mapping(t_bytes32,t_uint256)": {
        "encoding": "mapping",
        "key": "t_bytes32",
        "label": "mapping(bytes32 => uint256)",
        "numberOfBytes": "32",
        "value": "t_uint256"
      },
      "t_mapping(t_bytes4,t_bool)": {
        "encoding": "mapping",
        "key": "t_bytes4",
        "label": "mapping(bytes4 => bool)",
        "numberOfBytes": "32",
        "value": "t_bool"
      },
      "t_mapping(t_uint256,t_address)": {
        "encoding": "mapping",
        "key": "t_uint256",
        "label": "mapping(uint256 => address)",
        "numberOfBytes": "32",
        "value": "t_address"
      },
      "t_mapping(t_uint256,t_array(t_struct(Part)6109_storage)dyn_storage)": {
        "encoding": "mapping",
        "key": "t_uint256",
        "label": "mapping(uint256 => struct LibPart.Part[])",
        "numberOfBytes": "32",
        "value": "t_array(t_struct(Part)6109_storage)dyn_storage"
      },
      "t_mapping(t_uint256,t_bool)": {
        "encoding": "mapping",
        "key": "t_uint256",
        "label": "mapping(uint256 => bool)",
        "numberOfBytes": "32",
        "value": "t_bool"
      },
      "t_mapping(t_uint256,t_string_storage)": {
        "encoding": "mapping",
        "key": "t_uint256",
        "label": "mapping(uint256 => string)",
        "numberOfBytes": "32",
        "value": "t_string_storage"
      },
      "t_mapping(t_uint256,t_uint256)": {
        "encoding": "mapping",
        "key": "t_uint256",
        "label": "mapping(uint256 => uint256)",
        "numberOfBytes": "32",
        "value": "t_uint256"
      },
      "t_string_storage": {
        "encoding": "bytes",
        "label": "string",
        "numberOfBytes": "32"
      },
      "t_struct(AddressSet)2631_storage": {
        "encoding": "inplace",
        "label": "struct EnumerableSetUpgradeable.AddressSet",
        "members": [
          {
            "astId": 2630,
            "contract": "src/mint/GhostMarketERC721.sol:GhostMarketERC721",
            "label": "_inner",
            "offset": 0,
            "slot": "0",
            "type": "t_struct(Set)2330_storage"
          }
        ],
        "numberOfBytes": "64"
      },
      "t_struct(Counter)1360_storage": {
        "encoding": "inplace",
        "label": "struct CountersUpgradeable.Counter",
        "members": [
          {
            "astId": 1359,
            "contract": "src/mint/GhostMarketERC721.sol:GhostMarketERC721",
            "label": "_value",
            "offset": 0,
            "slot": "0",
            "type": "t_uint256"
          }
        ],
        "numberOfBytes": "32"
      },
      "t_struct(Part)6109_storage": {
        "encoding": "inplace",
        "label": "struct LibPart.Part",
        "members": [
          {
            "astId": 6106,
            "contract": "src/mint/GhostMarketERC721.sol:GhostMarketERC721",
            "label": "recipient",
            "offset": 0,
            "slot": "0",
            "type": "t_address_payable"
          },
          {
            "astId": 6108,
            "contract": "src/mint/GhostMarketERC721.sol:GhostMarketERC721",
            "label": "value",
            "offset": 0,
            "slot": "1",
            "type": "t_uint256"
          }
        ],
        "numberOfBytes": "64"
      },
      "t_struct(RoleData)179_storage": {
        "encoding": "inplace",
        "label": "struct AccessControlUpgradeable.RoleData",
        "members": [
          {
            "astId": 176,
            "contract": "src/mint/GhostMarketERC721.sol:GhostMarketERC721",
            "label": "members",
            "offset": 0,
            "slot": "0",
            "type": "t_mapping(t_address,t_bool)"
          },
          {
            "astId": 178,
            "contract": "src/mint/GhostMarketERC721.sol:GhostMarketERC721",
            "label": "adminRole",
            "offset": 0,
            "slot": "1",
            "type": "t_bytes32"
          }
        ],
        "numberOfBytes": "64"
      },
      "t_struct(Set)2330_storage": {
        "encoding": "inplace",
        "label": "struct EnumerableSetUpgradeable.Set",
        "members": [
          {
            "astId": 2325,
            "contract": "src/mint/GhostMarketERC721.sol:GhostMarketERC721",
            "label": "_values",
            "offset": 0,
            "slot": "0",
            "type": "t_array(t_bytes32)dyn_storage"
          },
          {
            "astId": 2329,
            "contract": "src/mint/GhostMarketERC721.sol:GhostMarketERC721",
            "label": "_indexes",
            "offset": 0,
            "slot": "1",
            "type": "t_mapping(t_bytes32,t_uint256)"
          }
        ],
        "numberOfBytes": "64"
      },
      "t_uint256": {
        "encoding": "inplace",
        "label": "uint256",
        "numberOfBytes": "32"
      },
      "t_uint8": {
        "encoding": "inplace",
        "label": "uint8",
        "numberOfBytes": "1"
      }
    }
  }
}