{
  "address": "0x31681e95A89034612926908F48A5E1Aa734EBf05",
  "abi": [
    {
      "anonymous": false,
      "inputs": [
        {
          "indexed": true,
          "internalType": "address",
          "name": "account",
          "type": "address"
        },
        {
          "indexed": true,
          "internalType": "address",
          "name": "operator",
          "type": "address"
        },
        {
          "indexed": false,
          "internalType": "bool",
          "name": "approved",
          "type": "bool"
        }
      ],
      "name": "ApprovalForAll",
      "type": "event"
    },
    {
      "anonymous": false,
      "inputs": [
        {
          "indexed": true,
          "internalType": "address",
          "name": "operator",
          "type": "address"
        },
        {
          "indexed": true,
          "internalType": "address",
          "name": "account",
          "type": "address"
        },
        {
          "indexed": false,
          "internalType": "uint256",
          "name": "id",
          "type": "uint256"
        },
        {
          "indexed": false,
          "internalType": "uint256",
          "name": "amount",
          "type": "uint256"
        }
      ],
      "name": "BurnLazy",
      "type": "event"
    },
    {
      "anonymous": false,
      "inputs": [
        {
          "indexed": true,
          "internalType": "address",
          "name": "operator",
          "type": "address"
        },
        {
          "indexed": true,
          "internalType": "address",
          "name": "account",
          "type": "address"
        },
        {
          "indexed": false,
          "internalType": "uint256[]",
          "name": "ids",
          "type": "uint256[]"
        },
        {
          "indexed": false,
          "internalType": "uint256[]",
          "name": "amounts",
          "type": "uint256[]"
        }
      ],
      "name": "BurnLazyBatch",
      "type": "event"
    },
    {
      "anonymous": false,
      "inputs": [
        {
          "indexed": false,
          "internalType": "uint8",
          "name": "version",
          "type": "uint8"
        }
      ],
      "name": "Initialized",
      "type": "event"
    },
    {
      "anonymous": false,
      "inputs": [
        {
          "indexed": true,
          "internalType": "address",
          "name": "msgSender",
          "type": "address"
        },
        {
          "indexed": true,
          "internalType": "uint256",
          "name": "tokenId",
          "type": "uint256"
        },
        {
          "indexed": false,
          "internalType": "string",
          "name": "lockedContent",
          "type": "string"
        }
      ],
      "name": "LockedContentViewed",
      "type": "event"
    },
    {
      "anonymous": false,
      "inputs": [
        {
          "indexed": true,
          "internalType": "address",
          "name": "toAddress",
          "type": "address"
        },
        {
          "indexed": true,
          "internalType": "uint256",
          "name": "tokenId",
          "type": "uint256"
        },
        {
          "indexed": false,
          "internalType": "string",
          "name": "tokenURI",
          "type": "string"
        },
        {
          "indexed": false,
          "internalType": "uint256",
          "name": "amount",
          "type": "uint256"
        }
      ],
      "name": "Minted",
      "type": "event"
    },
    {
      "anonymous": false,
      "inputs": [
        {
          "indexed": true,
          "internalType": "address",
          "name": "previousOwner",
          "type": "address"
        },
        {
          "indexed": true,
          "internalType": "address",
          "name": "newOwner",
          "type": "address"
        }
      ],
      "name": "OwnershipTransferred",
      "type": "event"
    },
    {
      "anonymous": false,
      "inputs": [
        {
          "indexed": false,
          "internalType": "address",
          "name": "account",
          "type": "address"
        }
      ],
      "name": "Paused",
      "type": "event"
    },
    {
      "anonymous": false,
      "inputs": [
        {
          "indexed": true,
          "internalType": "bytes32",
          "name": "role",
          "type": "bytes32"
        },
        {
          "indexed": true,
          "internalType": "bytes32",
          "name": "previousAdminRole",
          "type": "bytes32"
        },
        {
          "indexed": true,
          "internalType": "bytes32",
          "name": "newAdminRole",
          "type": "bytes32"
        }
      ],
      "name": "RoleAdminChanged",
      "type": "event"
    },
    {
      "anonymous": false,
      "inputs": [
        {
          "indexed": true,
          "internalType": "bytes32",
          "name": "role",
          "type": "bytes32"
        },
        {
          "indexed": true,
          "internalType": "address",
          "name": "account",
          "type": "address"
        },
        {
          "indexed": true,
          "internalType": "address",
          "name": "sender",
          "type": "address"
        }
      ],
      "name": "RoleGranted",
      "type": "event"
    },
    {
      "anonymous": false,
      "inputs": [
        {
          "indexed": true,
          "internalType": "bytes32",
          "name": "role",
          "type": "bytes32"
        },
        {
          "indexed": true,
          "internalType": "address",
          "name": "account",
          "type": "address"
        },
        {
          "indexed": true,
          "internalType": "address",
          "name": "sender",
          "type": "address"
        }
      ],
      "name": "RoleRevoked",
      "type": "event"
    },
    {
      "anonymous": false,
      "inputs": [
        {
          "indexed": true,
          "internalType": "address",
          "name": "operator",
          "type": "address"
        },
        {
          "indexed": true,
          "internalType": "address",
          "name": "from",
          "type": "address"
        },
        {
          "indexed": true,
          "internalType": "address",
          "name": "to",
          "type": "address"
        },
        {
          "indexed": false,
          "internalType": "uint256[]",
          "name": "ids",
          "type": "uint256[]"
        },
        {
          "indexed": false,
          "internalType": "uint256[]",
          "name": "values",
          "type": "uint256[]"
        }
      ],
      "name": "TransferBatch",
      "type": "event"
    },
    {
      "anonymous": false,
      "inputs": [
        {
          "indexed": true,
          "internalType": "address",
          "name": "operator",
          "type": "address"
        },
        {
          "indexed": true,
          "internalType": "address",
          "name": "from",
          "type": "address"
        },
        {
          "indexed": true,
          "internalType": "address",
          "name": "to",
          "type": "address"
        },
        {
          "indexed": false,
          "internalType": "uint256",
          "name": "id",
          "type": "uint256"
        },
        {
          "indexed": false,
          "internalType": "uint256",
          "name": "value",
          "type": "uint256"
        }
      ],
      "name": "TransferSingle",
      "type": "event"
    },
    {
      "anonymous": false,
      "inputs": [
        {
          "indexed": false,
          "internalType": "string",
          "name": "value",
          "type": "string"
        },
        {
          "indexed": true,
          "internalType": "uint256",
          "name": "id",
          "type": "uint256"
        }
      ],
      "name": "URI",
      "type": "event"
    },
    {
      "anonymous": false,
      "inputs": [
        {
          "indexed": false,
          "internalType": "address",
          "name": "account",
          "type": "address"
        }
      ],
      "name": "Unpaused",
      "type": "event"
    },
    {
      "inputs": [],
      "name": "DEFAULT_ADMIN_ROLE",
      "outputs": [
        {
          "internalType": "bytes32",
          "name": "",
          "type": "bytes32"
        }
      ],
      "stateMutability": "view",
      "type": "function"
    },
    {
      "inputs": [],
      "name": "MINTER_ROLE",
      "outputs": [
        {
          "internalType": "bytes32",
          "name": "",
          "type": "bytes32"
        }
      ],
      "stateMutability": "view",
      "type": "function"
    },
    {
      "inputs": [],
      "name": "PAUSER_ROLE",
      "outputs": [
        {
          "internalType": "bytes32",
          "name": "",
          "type": "bytes32"
        }
      ],
      "stateMutability": "view",
      "type": "function"
    },
    {
      "inputs": [],
      "name": "_GHOSTMARKET_NFT_ROYALTIES",
      "outputs": [
        {
          "internalType": "bytes4",
          "name": "",
          "type": "bytes4"
        }
      ],
      "stateMutability": "view",
      "type": "function"
    },
    {
      "inputs": [],
      "name": "_INTERFACE_ID_ERC1155_GHOSTMARKET",
      "outputs": [
        {
          "internalType": "bytes4",
          "name": "",
          "type": "bytes4"
        }
      ],
      "stateMutability": "view",
      "type": "function"
    },
    {
      "inputs": [
        {
          "internalType": "address",
          "name": "account",
          "type": "address"
        },
        {
          "internalType": "uint256",
          "name": "id",
          "type": "uint256"
        }
      ],
      "name": "balanceOf",
      "outputs": [
        {
          "internalType": "uint256",
          "name": "",
          "type": "uint256"
        }
      ],
      "stateMutability": "view",
      "type": "function"
    },
    {
      "inputs": [
        {
          "internalType": "address[]",
          "name": "accounts",
          "type": "address[]"
        },
        {
          "internalType": "uint256[]",
          "name": "ids",
          "type": "uint256[]"
        }
      ],
      "name": "balanceOfBatch",
      "outputs": [
        {
          "internalType": "uint256[]",
          "name": "",
          "type": "uint256[]"
        }
      ],
      "stateMutability": "view",
      "type": "function"
    },
    {
      "inputs": [
        {
          "internalType": "address",
          "name": "account",
          "type": "address"
        },
        {
          "internalType": "uint256",
          "name": "id",
          "type": "uint256"
        },
        {
          "internalType": "uint256",
          "name": "amount",
          "type": "uint256"
        }
      ],
      "name": "burn",
      "outputs": [],
      "stateMutability": "nonpayable",
      "type": "function"
    },
    {
      "inputs": [
        {
          "internalType": "address",
          "name": "account",
          "type": "address"
        },
        {
          "internalType": "uint256[]",
          "name": "ids",
          "type": "uint256[]"
        },
        {
          "internalType": "uint256[]",
          "name": "amounts",
          "type": "uint256[]"
        }
      ],
      "name": "burnBatch",
      "outputs": [],
      "stateMutability": "nonpayable",
      "type": "function"
    },
    {
      "inputs": [],
      "name": "getCurrentCounter",
      "outputs": [
        {
          "internalType": "uint256",
          "name": "",
          "type": "uint256"
        }
      ],
      "stateMutability": "view",
      "type": "function"
    },
    {
      "inputs": [
        {
          "internalType": "uint256",
          "name": "tokenId",
          "type": "uint256"
        }
      ],
      "name": "getCurrentLockedContentViewTracker",
      "outputs": [
        {
          "internalType": "uint256",
          "name": "",
          "type": "uint256"
        }
      ],
      "stateMutability": "view",
      "type": "function"
    },
    {
      "inputs": [
        {
          "internalType": "uint256",
          "name": "tokenId",
          "type": "uint256"
        }
      ],
      "name": "getLockedContent",
      "outputs": [],
      "stateMutability": "nonpayable",
      "type": "function"
    },
    {
      "inputs": [
        {
          "internalType": "bytes32",
          "name": "role",
          "type": "bytes32"
        }
      ],
      "name": "getRoleAdmin",
      "outputs": [
        {
          "internalType": "bytes32",
          "name": "",
          "type": "bytes32"
        }
      ],
      "stateMutability": "view",
      "type": "function"
    },
    {
      "inputs": [
        {
          "internalType": "bytes32",
          "name": "role",
          "type": "bytes32"
        },
        {
          "internalType": "uint256",
          "name": "index",
          "type": "uint256"
        }
      ],
      "name": "getRoleMember",
      "outputs": [
        {
          "internalType": "address",
          "name": "",
          "type": "address"
        }
      ],
      "stateMutability": "view",
      "type": "function"
    },
    {
      "inputs": [
        {
          "internalType": "bytes32",
          "name": "role",
          "type": "bytes32"
        }
      ],
      "name": "getRoleMemberCount",
      "outputs": [
        {
          "internalType": "uint256",
          "name": "",
          "type": "uint256"
        }
      ],
      "stateMutability": "view",
      "type": "function"
    },
    {
      "inputs": [
        {
          "internalType": "uint256",
          "name": "tokenId",
          "type": "uint256"
        }
      ],
      "name": "getRoyalties",
      "outputs": [
        {
          "components": [
            {
              "internalType": "address payable",
              "name": "recipient",
              "type": "address"
            },
            {
              "internalType": "uint256",
              "name": "value",
              "type": "uint256"
            }
          ],
          "internalType": "struct LibPart.Part[]",
          "name": "",
          "type": "tuple[]"
        }
      ],
      "stateMutability": "view",
      "type": "function"
    },
    {
      "inputs": [
        {
          "internalType": "uint256",
          "name": "tokenId",
          "type": "uint256"
        }
      ],
      "name": "getRoyaltiesBps",
      "outputs": [
        {
          "internalType": "uint256[]",
          "name": "",
          "type": "uint256[]"
        }
      ],
      "stateMutability": "view",
      "type": "function"
    },
    {
      "inputs": [
        {
          "internalType": "uint256",
          "name": "tokenId",
          "type": "uint256"
        }
      ],
      "name": "getRoyaltiesRecipients",
      "outputs": [
        {
          "internalType": "address payable[]",
          "name": "",
          "type": "address[]"
        }
      ],
      "stateMutability": "view",
      "type": "function"
    },
    {
      "inputs": [
        {
          "internalType": "bytes32",
          "name": "role",
          "type": "bytes32"
        },
        {
          "internalType": "address",
          "name": "account",
          "type": "address"
        }
      ],
      "name": "grantRole",
      "outputs": [],
      "stateMutability": "nonpayable",
      "type": "function"
    },
    {
      "inputs": [
        {
          "internalType": "bytes32",
          "name": "role",
          "type": "bytes32"
        },
        {
          "internalType": "address",
          "name": "account",
          "type": "address"
        }
      ],
      "name": "hasRole",
      "outputs": [
        {
          "internalType": "bool",
          "name": "",
          "type": "bool"
        }
      ],
      "stateMutability": "view",
      "type": "function"
    },
    {
      "inputs": [
        {
          "internalType": "string",
          "name": "_name",
          "type": "string"
        },
        {
          "internalType": "string",
          "name": "_symbol",
          "type": "string"
        },
        {
          "internalType": "string",
          "name": "uri",
          "type": "string"
        }
      ],
      "name": "initialize",
      "outputs": [],
      "stateMutability": "nonpayable",
      "type": "function"
    },
    {
      "inputs": [
        {
          "internalType": "address",
          "name": "account",
          "type": "address"
        },
        {
          "internalType": "address",
          "name": "operator",
          "type": "address"
        }
      ],
      "name": "isApprovedForAll",
      "outputs": [
        {
          "internalType": "bool",
          "name": "",
          "type": "bool"
        }
      ],
      "stateMutability": "view",
      "type": "function"
    },
    {
      "inputs": [
        {
          "components": [
            {
              "internalType": "uint256",
              "name": "tokenId",
              "type": "uint256"
            },
            {
              "internalType": "string",
              "name": "tokenURI",
              "type": "string"
            },
            {
              "internalType": "uint256",
              "name": "amount",
              "type": "uint256"
            },
            {
              "internalType": "address",
              "name": "minter",
              "type": "address"
            },
            {
              "components": [
                {
                  "internalType": "address payable",
                  "name": "recipient",
                  "type": "address"
                },
                {
                  "internalType": "uint256",
                  "name": "value",
                  "type": "uint256"
                }
              ],
              "internalType": "struct LibPart.Part[]",
              "name": "royalties",
              "type": "tuple[]"
            },
            {
              "internalType": "bytes",
              "name": "signature",
              "type": "bytes"
            }
          ],
          "internalType": "struct LibERC1155LazyMint.Mint1155Data",
          "name": "lazyMintData",
          "type": "tuple"
        },
        {
          "internalType": "address",
          "name": "to",
          "type": "address"
        },
        {
          "internalType": "uint256",
          "name": "_amount",
          "type": "uint256"
        }
      ],
      "name": "mintAndTransfer",
      "outputs": [],
      "stateMutability": "nonpayable",
      "type": "function"
    },
    {
      "inputs": [
        {
          "internalType": "address",
          "name": "to",
          "type": "address"
        },
        {
          "internalType": "uint256",
          "name": "amount",
          "type": "uint256"
        },
        {
          "internalType": "bytes",
          "name": "data",
          "type": "bytes"
        },
        {
          "components": [
            {
              "internalType": "address payable",
              "name": "recipient",
              "type": "address"
            },
            {
              "internalType": "uint256",
              "name": "value",
              "type": "uint256"
            }
          ],
          "internalType": "struct LibPart.Part[]",
          "name": "royalties",
          "type": "tuple[]"
        },
        {
          "internalType": "string",
          "name": "tokenURI",
          "type": "string"
        },
        {
          "internalType": "string",
          "name": "lockedcontent",
          "type": "string"
        }
      ],
      "name": "mintGhost",
      "outputs": [],
      "stateMutability": "payable",
      "type": "function"
    },
    {
      "inputs": [],
      "name": "name",
      "outputs": [
        {
          "internalType": "string",
          "name": "",
          "type": "string"
        }
      ],
      "stateMutability": "view",
      "type": "function"
    },
    {
      "inputs": [],
      "name": "owner",
      "outputs": [
        {
          "internalType": "address",
          "name": "",
          "type": "address"
        }
      ],
      "stateMutability": "view",
      "type": "function"
    },
    {
      "inputs": [],
      "name": "pause",
      "outputs": [],
      "stateMutability": "nonpayable",
      "type": "function"
    },
    {
      "inputs": [],
      "name": "paused",
      "outputs": [
        {
          "internalType": "bool",
          "name": "",
          "type": "bool"
        }
      ],
      "stateMutability": "view",
      "type": "function"
    },
    {
      "inputs": [],
      "name": "renounceOwnership",
      "outputs": [],
      "stateMutability": "nonpayable",
      "type": "function"
    },
    {
      "inputs": [
        {
          "internalType": "bytes32",
          "name": "role",
          "type": "bytes32"
        },
        {
          "internalType": "address",
          "name": "account",
          "type": "address"
        }
      ],
      "name": "renounceRole",
      "outputs": [],
      "stateMutability": "nonpayable",
      "type": "function"
    },
    {
      "inputs": [
        {
          "internalType": "bytes32",
          "name": "role",
          "type": "bytes32"
        },
        {
          "internalType": "address",
          "name": "account",
          "type": "address"
        }
      ],
      "name": "revokeRole",
      "outputs": [],
      "stateMutability": "nonpayable",
      "type": "function"
    },
    {
      "inputs": [
        {
          "internalType": "address",
          "name": "from",
          "type": "address"
        },
        {
          "internalType": "address",
          "name": "to",
          "type": "address"
        },
        {
          "internalType": "uint256[]",
          "name": "ids",
          "type": "uint256[]"
        },
        {
          "internalType": "uint256[]",
          "name": "amounts",
          "type": "uint256[]"
        },
        {
          "internalType": "bytes",
          "name": "data",
          "type": "bytes"
        }
      ],
      "name": "safeBatchTransferFrom",
      "outputs": [],
      "stateMutability": "nonpayable",
      "type": "function"
    },
    {
      "inputs": [
        {
          "internalType": "address",
          "name": "from",
          "type": "address"
        },
        {
          "internalType": "address",
          "name": "to",
          "type": "address"
        },
        {
          "internalType": "uint256",
          "name": "id",
          "type": "uint256"
        },
        {
          "internalType": "uint256",
          "name": "amount",
          "type": "uint256"
        },
        {
          "internalType": "bytes",
          "name": "data",
          "type": "bytes"
        }
      ],
      "name": "safeTransferFrom",
      "outputs": [],
      "stateMutability": "nonpayable",
      "type": "function"
    },
    {
      "inputs": [
        {
          "internalType": "address",
          "name": "operator",
          "type": "address"
        },
        {
          "internalType": "bool",
          "name": "approved",
          "type": "bool"
        }
      ],
      "name": "setApprovalForAll",
      "outputs": [],
      "stateMutability": "nonpayable",
      "type": "function"
    },
    {
      "inputs": [
        {
          "internalType": "string",
          "name": "uri_",
          "type": "string"
        }
      ],
      "name": "setURI",
      "outputs": [],
      "stateMutability": "nonpayable",
      "type": "function"
    },
    {
      "inputs": [
        {
          "internalType": "bytes4",
          "name": "interfaceId",
          "type": "bytes4"
        }
      ],
      "name": "supportsInterface",
      "outputs": [
        {
          "internalType": "bool",
          "name": "",
          "type": "bool"
        }
      ],
      "stateMutability": "view",
      "type": "function"
    },
    {
      "inputs": [],
      "name": "symbol",
      "outputs": [
        {
          "internalType": "string",
          "name": "",
          "type": "string"
        }
      ],
      "stateMutability": "view",
      "type": "function"
    },
    {
      "inputs": [
        {
          "components": [
            {
              "internalType": "uint256",
              "name": "tokenId",
              "type": "uint256"
            },
            {
              "internalType": "string",
              "name": "tokenURI",
              "type": "string"
            },
            {
              "internalType": "uint256",
              "name": "amount",
              "type": "uint256"
            },
            {
              "internalType": "address",
              "name": "minter",
              "type": "address"
            },
            {
              "components": [
                {
                  "internalType": "address payable",
                  "name": "recipient",
                  "type": "address"
                },
                {
                  "internalType": "uint256",
                  "name": "value",
                  "type": "uint256"
                }
              ],
              "internalType": "struct LibPart.Part[]",
              "name": "royalties",
              "type": "tuple[]"
            },
            {
              "internalType": "bytes",
              "name": "signature",
              "type": "bytes"
            }
          ],
          "internalType": "struct LibERC1155LazyMint.Mint1155Data",
          "name": "data",
          "type": "tuple"
        },
        {
          "internalType": "address",
          "name": "from",
          "type": "address"
        },
        {
          "internalType": "address",
          "name": "to",
          "type": "address"
        },
        {
          "internalType": "uint256",
          "name": "amount",
          "type": "uint256"
        }
      ],
      "name": "transferFromOrMint",
      "outputs": [],
      "stateMutability": "nonpayable",
      "type": "function"
    },
    {
      "inputs": [
        {
          "internalType": "address",
          "name": "newOwner",
          "type": "address"
        }
      ],
      "name": "transferOwnership",
      "outputs": [],
      "stateMutability": "nonpayable",
      "type": "function"
    },
    {
      "inputs": [],
      "name": "unpause",
      "outputs": [],
      "stateMutability": "nonpayable",
      "type": "function"
    },
    {
      "inputs": [
        {
          "internalType": "uint256",
          "name": "",
          "type": "uint256"
        }
      ],
      "name": "uri",
      "outputs": [
        {
          "internalType": "string",
          "name": "",
          "type": "string"
        }
      ],
      "stateMutability": "view",
      "type": "function"
    }
  ],
  "transactionHash": "0xc6a4f3cab7e615b4462e70af411d54f460d61eb166bc0986af9e2eeb35845dc3",
  "args": [],
  "numDeployments": 1,
  "solcInputHash": "6d64354e0faa8fc108c07c884a4d1fe7",
  "bytecode": "0x608060405234801561001057600080fd5b5061509e806100206000396000f3fe6080604052600436106102455760003560e01c80638da5cb5b11610139578063c1793c58116100b6578063e63ab1e91161007a578063e63ab1e91461071b578063e985e9c51461073d578063edcbc0bd1461075d578063f242432a1461078a578063f2fde38b146107aa578063f5298aca146107ca57600080fd5b8063c1793c5814610659578063c6f4f0f014610679578063ca15c873146106a7578063d5391393146106c7578063d547741f146106fb57600080fd5b8063a22cb465116100fd578063a22cb46514610598578063a6487c53146105b8578063ab866db1146105d8578063b3175cae1461060c578063bb3bafd61461062c57600080fd5b80638da5cb5b146104fb5780639010d07c1461052e57806391d148541461054e57806395d89b411461056e578063a217fddf1461058357600080fd5b80632f2ff15d116101c75780635c975abb1161018b5780635c975abb146104835780636b20c4541461049c578063715018a6146104bc57806373448c46146104d15780638456cb59146104e657600080fd5b80632f2ff15d146103e157806336568abe146104015780633f4ba83a1461042157806342ef1cb0146104365780634e1273f41461045657600080fd5b80630e89341c1161020e5780630e89341c1461030457806315e5022e146103245780631c7e78f314610371578063248a9ca3146103915780632eb2c2d6146103c157600080fd5b8062fdd58e1461024a57806301ffc9a71461027d57806302fe5305146102ad57806306fdde03146102cf5780630a0e1e83146102f1575b600080fd5b34801561025657600080fd5b5061026a610265366004613e85565b6107ea565b6040519081526020015b60405180910390f35b34801561028957600080fd5b5061029d610298366004613ec7565b610886565b6040519015158152602001610274565b3480156102b957600080fd5b506102cd6102c8366004613fe6565b610891565b005b3480156102db57600080fd5b506102e4610908565b604051610274919061407a565b6102cd6102ff366004614151565b610997565b34801561031057600080fd5b506102e461031f366004614216565b610bb6565b34801561033057600080fd5b506103587f94407210afedd72cdb4464e227401c7df8809575d2576d9f50e0d5cba8a92e5581565b6040516001600160e01b03199091168152602001610274565b34801561037d57600080fd5b506102cd61038c366004614216565b610c4a565b34801561039d57600080fd5b5061026a6103ac366004614216565b60009081526065602052604090206001015490565b3480156103cd57600080fd5b506102cd6103dc3660046142a0565b610d03565b3480156103ed57600080fd5b506102cd6103fc36600461434d565b610f7e565b34801561040d57600080fd5b506102cd61041c36600461434d565b610fa8565b34801561042d57600080fd5b506102cd611026565b34801561044257600080fd5b506102cd610451366004614435565b6110a8565b34801561046257600080fd5b5061047661047136600461449e565b611165565b60405161027491906145a5565b34801561048f57600080fd5b5061012f5460ff1661029d565b3480156104a857600080fd5b506102cd6104b73660046145b8565b61128e565b3480156104c857600080fd5b506102cd611450565b3480156104dd57600080fd5b5061026a611462565b3480156104f257600080fd5b506102cd611473565b34801561050757600080fd5b506101f7546001600160a01b03165b6040516001600160a01b039091168152602001610274565b34801561053a57600080fd5b5061051661054936600461462d565b6114ef565b34801561055a57600080fd5b5061029d61056936600461434d565b61150e565b34801561057a57600080fd5b506102e4611539565b34801561058f57600080fd5b5061026a600081565b3480156105a457600080fd5b506102cd6105b336600461464f565b611547565b3480156105c457600080fd5b506102cd6105d3366004614682565b61161e565b3480156105e457600080fd5b506103587fe42093a63818e0c931c15fda9036d0d8995a638e7acfabc8355a4789766e8de981565b34801561061857600080fd5b506102cd6106273660046146ff565b611793565b34801561063857600080fd5b5061064c610647366004614216565b611a4e565b6040516102749190614758565b34801561066557600080fd5b50610476610674366004614216565b611ad7565b34801561068557600080fd5b5061026a610694366004614216565b60009081526102f7602052604090205490565b3480156106b357600080fd5b5061026a6106c2366004614216565b611bfb565b3480156106d357600080fd5b5061026a7f9f2df0fed2c77648de5860a4cc508cd0818c85b8b8a1ab4ceeef8d981c8956a681565b34801561070757600080fd5b506102cd61071636600461434d565b611c12565b34801561072757600080fd5b5061026a60008051602061504983398151915281565b34801561074957600080fd5b5061029d6107583660046147b0565b611c37565b34801561076957600080fd5b5061077d610778366004614216565b611c65565b60405161027491906147de565b34801561079657600080fd5b506102cd6107a536600461482b565b611d8c565b3480156107b657600080fd5b506102cd6107c5366004614893565b611eeb565b3480156107d657600080fd5b506102cd6107e53660046148b0565b611f61565b60006001600160a01b03831661085b5760405162461bcd60e51b815260206004820152602b60248201527f455243313135353a2062616c616e636520717565727920666f7220746865207a60448201526a65726f206164647265737360a81b60648201526084015b60405180910390fd5b50600081815260c9602090815260408083206001600160a01b03861684529091529020545b92915050565b600061088082611fd4565b61089c60003361150e565b6108fc5760405162461bcd60e51b815260206004820152603e6024820152600080516020614fe983398151915260448201527f686176652061646d696e20726f6c6520746f20736574206e65772075726900006064820152608401610852565b61090581612006565b50565b6102f38054610916906148e5565b80601f0160208091040260200160405190810160405280929190818152602001828054610942906148e5565b801561098f5780601f106109645761010080835404028352916020019161098f565b820191906000526020600020905b81548152906001019060200180831161097257829003601f168201915b505050505081565b60026101c55414156109eb5760405162461bcd60e51b815260206004820152601f60248201527f5265656e7472616e637947756172643a207265656e7472616e742063616c6c006044820152606401610852565b60026101c5556001600160a01b038616610a3b5760405162461bcd60e51b8152602060048201526011602482015270746f2063616e277420626520656d70747960781b6044820152606401610852565b6040805160008152602081018083528151902091610a5b91859101614920565b604051602081830303815290604052805190602001201415610a8f5760405162461bcd60e51b81526004016108529061493c565b610aa486610a9d6102fb5490565b8787612019565b825115610abe57610abe610ab86102fb5490565b84612025565b6040805160008152602081018083528151902091610ade91849101614920565b6040516020818303038152906040528051906020012014610b0c57610b0c610b066102fb5490565b82612235565b6001600160a01b0386166000336001600160a01b0316600080516020615009833981519152610b3b6102fb5490565b60408051918252602082018b90520160405180910390a46102fb54866001600160a01b03167ff5c82eda717141c5f0cfeb894e7b7819c158a337b62ec13d412aecad30b0ad9e8488604051610b9192919061496d565b60405180910390a3610ba86102fb80546001019055565b505060016101c55550505050565b606060cb8054610bc5906148e5565b80601f0160208091040260200160405190810160405280929190818152602001828054610bf1906148e5565b8015610c3e5780601f10610c1357610100808354040283529160200191610c3e565b820191906000526020600020905b815481529060010190602001808311610c2157829003601f168201915b50505050509050919050565b610c53816122b8565b610cad5760405162461bcd60e51b815260206004820152602560248201527f43616c6c6572206d75737420626520746865206f776e6572206f6620746865206044820152643a37b5b2b760d91b6064820152608401610852565b610cb6816122cc565b60008181526102f66020526040908190209051829133917f544b1d1249133c50ce89743ed1ca34a815bd50d42b71e6d331a1ac560013a8ec91610cf89161498f565b60405180910390a350565b8151835114610d245760405162461bcd60e51b815260040161085290614a37565b6001600160a01b038416610d4a5760405162461bcd60e51b815260040161085290614a7f565b6001600160a01b038516331480610d665750610d668533611c37565b610dcd5760405162461bcd60e51b815260206004820152603260248201527f455243313135353a207472616e736665722063616c6c6572206973206e6f74206044820152711bdddb995c881b9bdc88185c1c1c9bdd995960721b6064820152608401610852565b33610ddc8187878787876122fa565b60005b8451811015610f10576000858281518110610dfc57610dfc614ac4565b602002602001015190506000858381518110610e1a57610e1a614ac4565b602090810291909101810151600084815260c9835260408082206001600160a01b038e168352909352919091205490915081811015610e6b5760405162461bcd60e51b815260040161085290614ada565b610e758282614b3a565b60c9600085815260200190815260200160002060008c6001600160a01b03166001600160a01b03168152602001908152602001600020819055508160c9600085815260200190815260200160002060008b6001600160a01b03166001600160a01b031681526020019081526020016000206000828254610ef59190614b51565b9250508190555050505080610f0990614b69565b9050610ddf565b50846001600160a01b0316866001600160a01b0316826001600160a01b03167f4a39dc06d4c0dbc64b70af90fd698a233a518aa5d07e595d983b8c0526c8f7fb8787604051610f60929190614b84565b60405180910390a4610f76818787878787612308565b505050505050565b600082815260656020526040902060010154610f998161247a565b610fa38383612484565b505050565b6001600160a01b03811633146110185760405162461bcd60e51b815260206004820152602f60248201527f416363657373436f6e74726f6c3a2063616e206f6e6c792072656e6f756e636560448201526e103937b632b9903337b91039b2b63360891b6064820152608401610852565b61102282826124a6565b5050565b61103e6000805160206150498339815191523361150e565b61109e5760405162461bcd60e51b815260206004820152603b6024820152600080516020614fe983398151915260448201527f686176652070617573657220726f6c6520746f20756e706175736500000000006064820152608401610852565b6110a66124c8565b565b60006110b88486600001516107ea565b90508181156110fb5782808310156110cd5750815b6110ed868689600001518460405180602001604052806000815250611d8c565b6110f78185614b3a565b9150505b8015610f765785606001516001600160a01b0316856001600160a01b03161461115a5760405162461bcd60e51b81526020600482015260116024820152703bb937b7339037b93232b91036b0b5b2b960791b6044820152606401610852565b610f76868583611793565b606081518351146111ca5760405162461bcd60e51b815260206004820152602960248201527f455243313135353a206163636f756e747320616e6420696473206c656e677468604482015268040dad2e6dac2e8c6d60bb1b6064820152608401610852565b600083516001600160401b038111156111e5576111e5613ee4565b60405190808252806020026020018201604052801561120e578160200160208202803683370190505b50905060005b84518110156112865761125985828151811061123257611232614ac4565b602002602001015185838151811061124c5761124c614ac4565b60200260200101516107ea565b82828151811061126b5761126b614ac4565b602090810291909101015261127f81614b69565b9050611214565b509392505050565b80518251146112d05760405162461bcd60e51b815260206004820152600e60248201526d69647320213d20616d6f756e747360901b6044820152606401610852565b600082516001600160401b038111156112eb576112eb613ee4565b604051908082528060200260200182016040528015611314578160200160208202803683370190505b509050600083516001600160401b0381111561133257611332613ee4565b60405190808252806020026020018201604052801561135b578160200160208202803683370190505b50905060005b84518110156113f0576113a685828151811061137f5761137f614ac4565b602002602001015185838151811061139957611399614ac4565b602002602001015161251b565b8483815181106113b8576113b8614ac4565b602002602001018484815181106113d1576113d1614ac4565b6020908102919091010191909152526113e981614b69565b9050611361565b506113fc8585846125af565b6001600160a01b038516336001600160a01b03167fcf3391513e21a9d4a0348f8e890080170eba18dc62db35b60d8a518b7088eb3a8684604051611441929190614b84565b60405180910390a35050505050565b6114586125f2565b6110a6600061264d565b600061146e6102fb5490565b905090565b61148b6000805160206150498339815191523361150e565b6114e75760405162461bcd60e51b81526020600482015260396024820152600080516020614fe9833981519152604482015278686176652070617573657220726f6c6520746f20706175736560381b6064820152608401610852565b6110a66126a0565b600082815260976020526040812061150790836126de565b9392505050565b60009182526065602090815260408084206001600160a01b0393909316845291905290205460ff1690565b6102f48054610916906148e5565b336001600160a01b03831614156115b25760405162461bcd60e51b815260206004820152602960248201527f455243313135353a2073657474696e6720617070726f76616c20737461747573604482015268103337b91039b2b63360b91b6064820152608401610852565b33600081815260ca602090815260408083206001600160a01b03871680855290835292819020805460ff191686151590811790915590519081529192917f17307eab39ab6107e8899845ad3d59bd9653f200f220920489ca2b5937696c31910160405180910390a35050565b600054610100900460ff161580801561163e5750600054600160ff909116105b8061165f575061164d306126ea565b15801561165f575060005460ff166001145b61167b5760405162461bcd60e51b815260040161085290614bb2565b6000805460ff19166001179055801561169e576000805461ff0019166101001790555b6116a66126f9565b6116ae6126f9565b6116b66126f9565b6116be6126f9565b6116c782612720565b6116cf6127e0565b6116d7612896565b6116df6127e0565b6116e76128ca565b6116ef612997565b6117187fe42093a63818e0c931c15fda9036d0d8995a638e7acfabc8355a4789766e8de96129c7565b835161172c906102f3906020870190613dc7565b508251611741906102f4906020860190613dc7565b506117516102fb80546001019055565b611759612a47565b801561178d576000805461ff0019169055604051600181526000805160206150298339815191529060200160405180910390a15b50505050565b60408051600081526020808201808452825190209086015190926117b79201614920565b6040516020818303038152906040528051906020012014156117eb5760405162461bcd60e51b81526004016108529061493c565b825160601c338082148061180457506118048282611c37565b6118615760405162461bcd60e51b815260206004820152602860248201527f455243313135353a207472616e736665722063616c6c6572206973206e6f7420604482015267185c1c1c9bdd995960c21b6064820152608401610852565b600083116118a45760405162461bcd60e51b815260206004820152601060248201526f185b5bdd5b9d081a5b98dbdc9c9958dd60821b6044820152606401610852565b60608501516001600160a01b031633146118d3576118d385606001516118c987612a8a565b8760a00151612bf0565b608085015151156118f0576118f085600001518660800151612025565b61190285600001518660400151612bfb565b6119218486600001518560405180602001604052806000815250612019565b836001600160a01b0316826001600160a01b0316146119cd57845160408051918252602082018590526001600160a01b038085169260009291851691600080516020615009833981519152910160405180910390a4836001600160a01b0316826001600160a01b0316826001600160a01b03166000805160206150098339815191528860000151876040516119c0929190918252602082015260400190565b60405180910390a4611a0a565b845160408051918252602082018590526001600160a01b038087169260009291851691600080516020615009833981519152910160405180910390a45b8460000151846001600160a01b03167ff5c82eda717141c5f0cfeb894e7b7819c158a337b62ec13d412aecad30b0ad9e87602001518660405161144192919061496d565b60606102f56000838152602001908152602001600020805480602002602001604051908101604052809291908181526020016000905b82821015611acc576000848152602090819020604080518082019091526002850290910180546001600160a01b03168252600190810154828401529083529092019101611a84565b505050509050919050565b60008181526102f560209081526040808320805482518185028101850190935280835260609493849084015b82821015611b4b576000848152602090819020604080518082019091526002850290910180546001600160a01b03168252600190810154828401529083529092019101611b03565b505050509050600081516001600160401b03811115611b6c57611b6c613ee4565b604051908082528060200260200182016040528015611b95578160200160208202803683370190505b50825190915060005b81811015611bf157838181518110611bb857611bb8614ac4565b602002602001015160200151838281518110611bd657611bd6614ac4565b6020908102919091010152611bea81614b69565b9050611b9e565b5090949350505050565b600081815260976020526040812061088090612c20565b600082815260656020526040902060010154611c2d8161247a565b610fa383836124a6565b6001600160a01b03918216600090815260ca6020908152604080832093909416825291909152205460ff1690565b60008181526102f560209081526040808320805482518185028101850190935280835260609493849084015b82821015611cd9576000848152602090819020604080518082019091526002850290910180546001600160a01b03168252600190810154828401529083529092019101611c91565b505050509050600081516001600160401b03811115611cfa57611cfa613ee4565b604051908082528060200260200182016040528015611d23578160200160208202803683370190505b50825190915060005b81811015611bf157838181518110611d4657611d46614ac4565b602002602001015160000151838281518110611d6457611d64614ac4565b6001600160a01b0390921660209283029190910190910152611d8581614b69565b9050611d2c565b6001600160a01b038416611db25760405162461bcd60e51b815260040161085290614a7f565b6001600160a01b038516331480611dce5750611dce8533611c37565b611dea5760405162461bcd60e51b815260040161085290614c00565b33611e09818787611dfa88612c2a565b611e0388612c2a565b876122fa565b600084815260c9602090815260408083206001600160a01b038a16845290915290205483811015611e4c5760405162461bcd60e51b815260040161085290614ada565b611e568482614b3a565b600086815260c9602090815260408083206001600160a01b038c81168552925280832093909355881681529081208054869290611e94908490614b51565b909155505060408051868152602081018690526001600160a01b03808916928a82169291861691600080516020615009833981519152910160405180910390a4611ee2828888888888612c75565b50505050505050565b611ef36125f2565b6001600160a01b038116611f585760405162461bcd60e51b815260206004820152602660248201527f4f776e61626c653a206e6577206f776e657220697320746865207a65726f206160448201526564647265737360d01b6064820152608401610852565b6109058161264d565b600080611f6e848461251b565b90925090508115611f8457611f84858584612d46565b8015611fcd5760408051858152602081018390526001600160a01b0387169133917f5110a21391aa55386de41fe7a3e3dffb40132d38d629a113a7f4afff251b1a019101611441565b5050505050565b6000611fdf82612d89565b806108805750506001600160e01b0319166000908152610229602052604090205460ff1690565b80516110229060cb906020840190613dc7565b61178d84848484612d94565b8051600090815b818110156121d65760006001600160a01b031684828151811061205157612051614ac4565b6020026020010151600001516001600160a01b031614156120b45760405162461bcd60e51b815260206004820152601b60248201527f526563697069656e742073686f756c642062652070726573656e7400000000006044820152606401610852565b60008482815181106120c8576120c8614ac4565b6020026020010151602001511161212c5760405162461bcd60e51b815260206004820152602260248201527f526f79616c746965732076616c75652073686f756c6420626520706f73697469604482015261766560f01b6064820152608401610852565b83818151811061213e5761213e614ac4565b602002602001015160200151836121559190614b51565b92506102f5600086815260200190815260200160002084828151811061217d5761217d614ac4565b602090810291909101810151825460018082018555600094855293839020825160029092020180546001600160a01b0319166001600160a01b039092169190911781559101519101556121cf81614b69565b905061202c565b5061138882111561178d5760405162461bcd60e51b815260206004820152602360248201527f526f79616c747920746f74616c2076616c75652073686f756c64206265203c2060448201526235302560e81b6064820152608401610852565b60c88151106122985760405162461bcd60e51b815260206004820152602960248201527f4c6f636b20636f6e74656e74206279746573206c656e6774682073686f756c646044820152680206265203c203230360bc1b6064820152608401610852565b60008281526102f6602090815260409091208251610fa392840190613dc7565b60006122c433836107ea565b151592915050565b60008181526102f760205260409020546122e7906001614b51565b60009182526102f7602052604090912055565b610f76868686868686612f0e565b61231a846001600160a01b03166126ea565b15610f765760405163bc197c8160e01b81526001600160a01b0385169063bc197c81906123539089908990889088908890600401614c49565b602060405180830381600087803b15801561236d57600080fd5b505af192505050801561239d575060408051601f3d908101601f1916820190925261239a91810190614ca7565b60015b61244a576123a9614cc4565b806308c379a014156123e357506123be614ce0565b806123c957506123e5565b8060405162461bcd60e51b8152600401610852919061407a565b505b60405162461bcd60e51b815260206004820152603460248201527f455243313135353a207472616e7366657220746f206e6f6e20455243313135356044820152732932b1b2b4bb32b91034b6b83632b6b2b73a32b960611b6064820152608401610852565b6001600160e01b0319811663bc197c8160e01b14611ee25760405162461bcd60e51b815260040161085290614d69565b6109058133612f77565b61248e8282612fdb565b6000828152609760205260409020610fa39082613061565b6124b08282613076565b6000828152609760205260409020610fa390826130dd565b6124d06130f2565b61012f805460ff191690557f5db9ee0a495bf2e6ff9c91a7834c1ba4fdd244a5e8aa4e537bd38aeae4b073aa335b6040516001600160a01b03909116815260200160405180910390a1565b806000606084901c338114156125a757600085815260cc60205260409020548492501561257657600085815260cd602090815260408083205460cc9092528220546125669190614b3a565b905080851115612574578092505b505b600085815260cd602052604081208054869290612594908490614b51565b909155506125a490508285614b3a565b92505b509250929050565b6001600160a01b0383163314806125cb57506125cb8333611c37565b6125e75760405162461bcd60e51b815260040161085290614c00565b610fa383838361313c565b6101f7546001600160a01b031633146110a65760405162461bcd60e51b815260206004820181905260248201527f4f776e61626c653a2063616c6c6572206973206e6f7420746865206f776e65726044820152606401610852565b6101f780546001600160a01b038381166001600160a01b0319831681179093556040519116919082907f8be0079c531659141344cd1fd0a4f28419497f9722a3daafe3b4186f6b6457e090600090a35050565b6126a86132d8565b61012f805460ff191660011790557f62e78cea01bee320cd4e420270b5ea74000d11b0c9f74754ebdbfc544b05a2586124fe3390565b6000611507838361331f565b6001600160a01b03163b151590565b600054610100900460ff166110a65760405162461bcd60e51b815260040161085290614db1565b600054610100900460ff16158080156127405750600054600160ff909116105b80612761575061274f306126ea565b158015612761575060005460ff166001145b61277d5760405162461bcd60e51b815260040161085290614bb2565b6000805460ff1916600117905580156127a0576000805461ff0019166101001790555b6127a982612006565b8015611022576000805461ff0019169055604051600181526000805160206150298339815191529060200160405180910390a15050565b600054610100900460ff16158080156128005750600054600160ff909116105b80612821575061280f306126ea565b158015612821575060005460ff166001145b61283d5760405162461bcd60e51b815260040161085290614bb2565b6000805460ff191660011790558015612860576000805461ff0019166101001790555b8015610905576000805461ff0019169055604051600181526000805160206150298339815191529060200160405180910390a150565b600054610100900460ff166128bd5760405162461bcd60e51b815260040161085290614db1565b61012f805460ff19169055565b600054610100900460ff16158080156128ea5750600054600160ff909116105b8061290b57506128f9306126ea565b15801561290b575060005460ff166001145b6129275760405162461bcd60e51b815260040161085290614bb2565b6000805460ff19166001179055801561294a576000805461ff0019166101001790555b612955600033613349565b61297f7f9f2df0fed2c77648de5860a4cc508cd0818c85b8b8a1ab4ceeef8d981c8956a633613349565b61286060008051602061504983398151915233613349565b600054610100900460ff166129be5760405162461bcd60e51b815260040161085290614db1565b6110a63361264d565b6001600160e01b03198082161415612a215760405162461bcd60e51b815260206004820152601c60248201527f4552433136353a20696e76616c696420696e74657266616365206964000000006044820152606401610852565b6001600160e01b031916600090815261022960205260409020805460ff19166001179055565b6110a6604051806040016040528060088152602001674d696e743131353560c01b815250604051806040016040528060018152602001603160f81b815250613353565b6000808260800151516001600160401b03811115612aaa57612aaa613ee4565b604051908082528060200260200182016040528015612ad3578160200160208202803683370190505b50905060005b836080015151811015612b3957612b0c84608001518281518110612aff57612aff614ac4565b6020026020010151613396565b828281518110612b1e57612b1e614ac4565b6020908102919091010152612b3281614b69565b9050612ad9565b507f3dcb471ba61bca9d3a21935bf6759f5945f7febe391420b6accadc1d1e882e0c83600001518460200151805190602001208560400151866060015185604051602001612b879190614dfc565b60408051601f19818403018152828252805160209182012090830197909752810194909452606084019290925260808301526001600160a01b031660a082015260c081019190915260e00160405160208183030381529060405280519060200120915050919050565b610fa3838383613409565b600082815260cc602052604090205461102257600091825260cc602052604090912055565b6000610880825490565b60408051600180825281830190925260609160009190602080830190803683370190505090508281600081518110612c6457612c64614ac4565b602090810291909101015292915050565b612c87846001600160a01b03166126ea565b15610f765760405163f23a6e6160e01b81526001600160a01b0385169063f23a6e6190612cc09089908990889088908890600401614e32565b602060405180830381600087803b158015612cda57600080fd5b505af1925050508015612d0a575060408051601f3d908101601f19168201909252612d0791810190614ca7565b60015b612d16576123a9614cc4565b6001600160e01b0319811663f23a6e6160e01b14611ee25760405162461bcd60e51b815260040161085290614d69565b6001600160a01b038316331480612d625750612d628333611c37565b612d7e5760405162461bcd60e51b815260040161085290614c00565b610fa383838361358f565b60006108808261368a565b600083815260cd602052604090205415801590612dbe5750600083815260cc602052604090205415155b15612e4457600083815260cd6020526040812054612ddc9084614b51565b600085815260cc6020526040902054909150811115612e305760405162461bcd60e51b815260206004820152601060248201526f6d6f7265207468616e20737570706c7960801b6044820152606401610852565b600084815260cd6020526040902055612e56565b600083815260cd602052604090208290555b6001600160a01b038416612eb65760405162461bcd60e51b815260206004820152602160248201527f455243313135353a206d696e7420746f20746865207a65726f206164647265736044820152607360f81b6064820152608401610852565b33612ec781600087611dfa88612c2a565b600084815260c9602090815260408083206001600160a01b038916845290915281208054859290612ef9908490614b51565b90915550611fcd905081600087878787612c75565b61012f5460ff1615610f765760405162461bcd60e51b815260206004820152602c60248201527f455243313135355061757361626c653a20746f6b656e207472616e736665722060448201526b1dda1a5b19481c185d5cd95960a21b6064820152608401610852565b612f81828261150e565b61102257612f99816001600160a01b031660146136ca565b612fa48360206136ca565b604051602001612fb5929190614e77565b60408051601f198184030181529082905262461bcd60e51b82526108529160040161407a565b612fe5828261150e565b6110225760008281526065602090815260408083206001600160a01b03851684529091529020805460ff1916600117905561301d3390565b6001600160a01b0316816001600160a01b0316837f2f8788117e7eff1d82e926ec794901d17c78024a50270940304540a733656f0d60405160405180910390a45050565b6000611507836001600160a01b038416613865565b613080828261150e565b156110225760008281526065602090815260408083206001600160a01b0385168085529252808320805460ff1916905551339285917ff6391f5c32d9c69d2a47ea670b442974b53935d1edc7fd64eb21e047a839171b9190a45050565b6000611507836001600160a01b0384166138b4565b61012f5460ff166110a65760405162461bcd60e51b815260206004820152601460248201527314185d5cd8589b194e881b9bdd081c185d5cd95960621b6044820152606401610852565b6001600160a01b0383166131625760405162461bcd60e51b815260040161085290614ee6565b80518251146131835760405162461bcd60e51b815260040161085290614a37565b60003390506131a6818560008686604051806020016040528060008152506122fa565b60005b83518110156132795760008482815181106131c6576131c6614ac4565b6020026020010151905060008483815181106131e4576131e4614ac4565b602090810291909101810151600084815260c9835260408082206001600160a01b038c1683529093529190912054909150818110156132355760405162461bcd60e51b815260040161085290614f29565b61323f8282614b3a565b600093845260c9602090815260408086206001600160a01b038c1687529091529093209290925550613272905081614b69565b90506131a9565b5060006001600160a01b0316846001600160a01b0316826001600160a01b03167f4a39dc06d4c0dbc64b70af90fd698a233a518aa5d07e595d983b8c0526c8f7fb86866040516132ca929190614b84565b60405180910390a450505050565b61012f5460ff16156110a65760405162461bcd60e51b815260206004820152601060248201526f14185d5cd8589b194e881c185d5cd95960821b6044820152606401610852565b600082600001828154811061333657613336614ac4565b9060005260206000200154905092915050565b6110228282612484565b600054610100900460ff1661337a5760405162461bcd60e51b815260040161085290614db1565b81516020928301208151919092012061025b9190915561025c55565b80516020808301516040516000936133ec937fce8c43412600341b06881c0113c6a93eb2fdd51da73426cee150319daf4e1909939192019283526001600160a01b03919091166020830152604082015260600190565b604051602081830303815290604052805190602001209050919050565b6000613414836139a7565b9050600082516041141561342f5761342c82846139f5565b90505b846001600160a01b0316816001600160a01b031614611fcd5761345a856001600160a01b03166126ea565b1561354457604051630b135d3f60e11b808252906001600160a01b03871690631626ba7e9061348f9086908890600401614f6d565b60206040518083038186803b1580156134a757600080fd5b505afa1580156134bb573d6000803e3d6000fd5b505050506040513d601f19601f820116820180604052508101906134df9190614ca7565b6001600160e01b031916146040518060400160405280601c81526020017f7369676e617475726520766572696669636174696f6e206572726f72000000008152509061353e5760405162461bcd60e51b8152600401610852919061407a565b50611fcd565b604080518082018252601c81527f7369676e617475726520766572696669636174696f6e206572726f72000000006020820152905162461bcd60e51b8152610852919060040161407a565b6001600160a01b0383166135b55760405162461bcd60e51b815260040161085290614ee6565b336135e4818560006135c687612c2a565b6135cf87612c2a565b604051806020016040528060008152506122fa565b600083815260c9602090815260408083206001600160a01b0388168452909152902054828110156136275760405162461bcd60e51b815260040161085290614f29565b6136318382614b3a565b600085815260c9602090815260408083206001600160a01b038a81168086529184528285209590955581518981529283018890529293861691600080516020615009833981519152910160405180910390a45050505050565b60006001600160e01b03198216636cdb3d1360e11b14806136bb57506001600160e01b031982166303a24d0760e21b145b80610880575061088082613a11565b606060006136d9836002614f86565b6136e4906002614b51565b6001600160401b038111156136fb576136fb613ee4565b6040519080825280601f01601f191660200182016040528015613725576020820181803683370190505b509050600360fc1b8160008151811061374057613740614ac4565b60200101906001600160f81b031916908160001a905350600f60fb1b8160018151811061376f5761376f614ac4565b60200101906001600160f81b031916908160001a9053506000613793846002614f86565b61379e906001614b51565b90505b6001811115613816576f181899199a1a9b1b9c1cb0b131b232b360811b85600f16601081106137d2576137d2614ac4565b1a60f81b8282815181106137e8576137e8614ac4565b60200101906001600160f81b031916908160001a90535060049490941c9361380f81614fa5565b90506137a1565b5083156115075760405162461bcd60e51b815260206004820181905260248201527f537472696e67733a20686578206c656e67746820696e73756666696369656e746044820152606401610852565b60008181526001830160205260408120546138ac57508154600181810184556000848152602080822090930184905584548482528286019093526040902091909155610880565b506000610880565b6000818152600183016020526040812054801561399d5760006138d8600183614b3a565b85549091506000906138ec90600190614b3a565b905081811461395157600086600001828154811061390c5761390c614ac4565b906000526020600020015490508087600001848154811061392f5761392f614ac4565b6000918252602080832090910192909255918252600188019052604090208390555b855486908061396257613962614fbc565b600190038181906000526020600020016000905590558560010160008681526020019081526020016000206000905560019350505050610880565b6000915050610880565b60006108806139b4613a36565b8360405161190160f01b6020820152602281018390526042810182905260009060620160405160208183030381529060405280519060200120905092915050565b6000806000613a048585613ab3565b9150915061128681613af9565b60006001600160e01b03198216635a05180f60e01b1480610880575061088082613caf565b600061146e7f8b73c3c69bb8fe3d512ecc4cf759cc79239f7b179b0ffacaa9a75d522b39400f613a6661025b5490565b61025c546040805160208101859052908101839052606081018290524660808201523060a082015260009060c0016040516020818303038152906040528051906020012090509392505050565b600080825160411415613aea5760208301516040840151606085015160001a613ade87828585613ce4565b94509450505050613af2565b506000905060025b9250929050565b6000816004811115613b0d57613b0d614fd2565b1415613b165750565b6001816004811115613b2a57613b2a614fd2565b1415613b735760405162461bcd60e51b815260206004820152601860248201527745434453413a20696e76616c6964207369676e617475726560401b6044820152606401610852565b6002816004811115613b8757613b87614fd2565b1415613bd55760405162461bcd60e51b815260206004820152601f60248201527f45434453413a20696e76616c6964207369676e6174757265206c656e677468006044820152606401610852565b6003816004811115613be957613be9614fd2565b1415613c425760405162461bcd60e51b815260206004820152602260248201527f45434453413a20696e76616c6964207369676e6174757265202773272076616c604482015261756560f01b6064820152608401610852565b6004816004811115613c5657613c56614fd2565b14156109055760405162461bcd60e51b815260206004820152602260248201527f45434453413a20696e76616c6964207369676e6174757265202776272076616c604482015261756560f01b6064820152608401610852565b60006001600160e01b03198216637965db0b60e01b148061088057506301ffc9a760e01b6001600160e01b0319831614610880565b6000806fa2a8918ca85bafe22016d0b997e4df60600160ff1b03831115613d115750600090506003613dbe565b8460ff16601b14158015613d2957508460ff16601c14155b15613d3a5750600090506004613dbe565b6040805160008082526020820180845289905260ff881692820192909252606081018690526080810185905260019060a0016020604051602081039080840390855afa158015613d8e573d6000803e3d6000fd5b5050604051601f1901519150506001600160a01b038116613db757600060019250925050613dbe565b9150600090505b94509492505050565b828054613dd3906148e5565b90600052602060002090601f016020900481019282613df55760008555613e3b565b82601f10613e0e57805160ff1916838001178555613e3b565b82800160010185558215613e3b579182015b82811115613e3b578251825591602001919060010190613e20565b50613e47929150613e4b565b5090565b5b80821115613e475760008155600101613e4c565b6001600160a01b038116811461090557600080fd5b8035613e8081613e60565b919050565b60008060408385031215613e9857600080fd5b8235613ea381613e60565b946020939093013593505050565b6001600160e01b03198116811461090557600080fd5b600060208284031215613ed957600080fd5b813561150781613eb1565b634e487b7160e01b600052604160045260246000fd5b604081018181106001600160401b0382111715613f1957613f19613ee4565b60405250565b601f8201601f191681016001600160401b0381118282101715613f4457613f44613ee4565b6040525050565b60405160c081016001600160401b0381118282101715613f6d57613f6d613ee4565b60405290565b600082601f830112613f8457600080fd5b81356001600160401b03811115613f9d57613f9d613ee4565b604051613fb4601f8301601f191660200182613f1f565b818152846020838601011115613fc957600080fd5b816020850160208301376000918101602001919091529392505050565b600060208284031215613ff857600080fd5b81356001600160401b0381111561400e57600080fd5b61401a84828501613f73565b949350505050565b60005b8381101561403d578181015183820152602001614025565b8381111561178d5750506000910152565b60008151808452614066816020860160208601614022565b601f01601f19169290920160200192915050565b602081526000611507602083018461404e565b60006001600160401b038211156140a6576140a6613ee4565b5060051b60200190565b600082601f8301126140c157600080fd5b813560206140ce8261408d565b604080516140dc8382613f1f565b84815260069490941b86018301938381019250878511156140fc57600080fd5b8387015b858110156141455782818a0312156141185760008081fd5b825161412381613efa565b813561412e81613e60565b815281860135868201528452928401928201614100565b50979650505050505050565b60008060008060008060c0878903121561416a57600080fd5b61417387613e75565b95506020870135945060408701356001600160401b038082111561419657600080fd5b6141a28a838b01613f73565b955060608901359150808211156141b857600080fd5b6141c48a838b016140b0565b945060808901359150808211156141da57600080fd5b6141e68a838b01613f73565b935060a08901359150808211156141fc57600080fd5b5061420989828a01613f73565b9150509295509295509295565b60006020828403121561422857600080fd5b5035919050565b600082601f83011261424057600080fd5b8135602061424d8261408d565b60405161425a8282613f1f565b83815260059390931b850182019282810191508684111561427a57600080fd5b8286015b84811015614295578035835291830191830161427e565b509695505050505050565b600080600080600060a086880312156142b857600080fd5b85356142c381613e60565b945060208601356142d381613e60565b935060408601356001600160401b03808211156142ef57600080fd5b6142fb89838a0161422f565b9450606088013591508082111561431157600080fd5b61431d89838a0161422f565b9350608088013591508082111561433357600080fd5b5061434088828901613f73565b9150509295509295909350565b6000806040838503121561436057600080fd5b82359150602083013561437281613e60565b809150509250929050565b600060c0828403121561438f57600080fd5b614397613f4b565b90508135815260208201356001600160401b03808211156143b757600080fd5b6143c385838601613f73565b6020840152604084013560408401526143de60608501613e75565b606084015260808401359150808211156143f757600080fd5b614403858386016140b0565b608084015260a084013591508082111561441c57600080fd5b5061442984828501613f73565b60a08301525092915050565b6000806000806080858703121561444b57600080fd5b84356001600160401b0381111561446157600080fd5b61446d8782880161437d565b945050602085013561447e81613e60565b9250604085013561448e81613e60565b9396929550929360600135925050565b600080604083850312156144b157600080fd5b82356001600160401b03808211156144c857600080fd5b818501915085601f8301126144dc57600080fd5b813560206144e98261408d565b6040516144f68282613f1f565b83815260059390931b850182019282810191508984111561451657600080fd5b948201945b8386101561453d57853561452e81613e60565b8252948201949082019061451b565b9650508601359250508082111561455357600080fd5b506145608582860161422f565b9150509250929050565b600081518084526020808501945080840160005b8381101561459a5781518752958201959082019060010161457e565b509495945050505050565b602081526000611507602083018461456a565b6000806000606084860312156145cd57600080fd5b83356145d881613e60565b925060208401356001600160401b03808211156145f457600080fd5b6146008783880161422f565b9350604086013591508082111561461657600080fd5b506146238682870161422f565b9150509250925092565b6000806040838503121561464057600080fd5b50508035926020909101359150565b6000806040838503121561466257600080fd5b823561466d81613e60565b91506020830135801515811461437257600080fd5b60008060006060848603121561469757600080fd5b83356001600160401b03808211156146ae57600080fd5b6146ba87838801613f73565b945060208601359150808211156146d057600080fd5b6146dc87838801613f73565b935060408601359150808211156146f257600080fd5b5061462386828701613f73565b60008060006060848603121561471457600080fd5b83356001600160401b0381111561472a57600080fd5b6147368682870161437d565b935050602084013561474781613e60565b929592945050506040919091013590565b602080825282518282018190526000919060409081850190868401855b828110156147a357815180516001600160a01b03168552860151868501529284019290850190600101614775565b5091979650505050505050565b600080604083850312156147c357600080fd5b82356147ce81613e60565b9150602083013561437281613e60565b6020808252825182820181905260009190848201906040850190845b8181101561481f5783516001600160a01b0316835292840192918401916001016147fa565b50909695505050505050565b600080600080600060a0868803121561484357600080fd5b853561484e81613e60565b9450602086013561485e81613e60565b9350604086013592506060860135915060808601356001600160401b0381111561488757600080fd5b61434088828901613f73565b6000602082840312156148a557600080fd5b813561150781613e60565b6000806000606084860312156148c557600080fd5b83356148d081613e60565b95602085013595506040909401359392505050565b600181811c908216806148f957607f821691505b6020821081141561491a57634e487b7160e01b600052602260045260246000fd5b50919050565b60008251614932818460208701614022565b9190910192915050565b602080825260179082015276746f6b656e5552492063616e277420626520656d70747960481b604082015260600190565b604081526000614980604083018561404e565b90508260208301529392505050565b600060208083526000845481600182811c9150808316806149b157607f831692505b8583108114156149cf57634e487b7160e01b85526022600452602485fd5b8786018381526020018180156149ec57600181146149fd57614a28565b60ff19861682528782019650614a28565b60008b81526020902060005b86811015614a2257815484820152908501908901614a09565b83019750505b50949998505050505050505050565b60208082526028908201527f455243313135353a2069647320616e6420616d6f756e7473206c656e677468206040820152670dad2e6dac2e8c6d60c31b606082015260800190565b60208082526025908201527f455243313135353a207472616e7366657220746f20746865207a65726f206164604082015264647265737360d81b606082015260800190565b634e487b7160e01b600052603260045260246000fd5b6020808252602a908201527f455243313135353a20696e73756666696369656e742062616c616e636520666f60408201526939103a3930b739b332b960b11b606082015260800190565b634e487b7160e01b600052601160045260246000fd5b600082821015614b4c57614b4c614b24565b500390565b60008219821115614b6457614b64614b24565b500190565b6000600019821415614b7d57614b7d614b24565b5060010190565b604081526000614b97604083018561456a565b8281036020840152614ba9818561456a565b95945050505050565b6020808252602e908201527f496e697469616c697a61626c653a20636f6e747261637420697320616c72656160408201526d191e481a5b9a5d1a585b1a5e995960921b606082015260800190565b60208082526029908201527f455243313135353a2063616c6c6572206973206e6f74206f776e6572206e6f7260408201526808185c1c1c9bdd995960ba1b606082015260800190565b6001600160a01b0386811682528516602082015260a060408201819052600090614c759083018661456a565b8281036060840152614c87818661456a565b90508281036080840152614c9b818561404e565b98975050505050505050565b600060208284031215614cb957600080fd5b815161150781613eb1565b600060033d1115614cdd5760046000803e5060005160e01c5b90565b600060443d1015614cee5790565b6040516003193d81016004833e81513d6001600160401b038160248401118184111715614d1d57505050505090565b8285019150815181811115614d355750505050505090565b843d8701016020828501011115614d4f5750505050505090565b614d5e60208286010187613f1f565b509095945050505050565b60208082526028908201527f455243313135353a204552433131353552656365697665722072656a656374656040820152676420746f6b656e7360c01b606082015260800190565b6020808252602b908201527f496e697469616c697a61626c653a20636f6e7472616374206973206e6f74206960408201526a6e697469616c697a696e6760a81b606082015260800190565b815160009082906020808601845b83811015614e2657815185529382019390820190600101614e0a565b50929695505050505050565b6001600160a01b03868116825285166020820152604081018490526060810183905260a060808201819052600090614e6c9083018461404e565b979650505050505050565b76020b1b1b2b9b9a1b7b73a3937b61d1030b1b1b7bab73a1604d1b815260008351614ea9816017850160208801614022565b7001034b99036b4b9b9b4b733903937b6329607d1b6017918401918201528351614eda816028840160208801614022565b01602801949350505050565b60208082526023908201527f455243313135353a206275726e2066726f6d20746865207a65726f206164647260408201526265737360e81b606082015260800190565b60208082526024908201527f455243313135353a206275726e20616d6f756e7420657863656564732062616c604082015263616e636560e01b606082015260800190565b82815260406020820152600061401a604083018461404e565b6000816000190483118215151615614fa057614fa0614b24565b500290565b600081614fb457614fb4614b24565b506000190190565b634e487b7160e01b600052603160045260246000fd5b634e487b7160e01b600052602160045260246000fdfe455243313135355072657365744d696e7465725061757365723a206d75737420c3d58168c5ae7397731d063d5bbf3d657854427343f4c083240f7aacaa2d0f627f26b83ff96e1f2b6a682f133852f6798a09c465da95921460cefb384740249865d7a28e3265b37a6474929f336521b332c1681b933f6cb9f3376673440d862aa264697066735822122000d87c8dbf1a567a1710cdd4e639bc01851bce317117421bea6251444ae2ae7b64736f6c63430008090033",
  "devdoc": {
    "events": {
      "BurnLazy(address,address,uint256,uint256)": {
        "params": {
          "account": "address used to burn",
          "amount": "amount of token burned",
          "id": "token id of token burned",
          "operator": "operator used to burn"
        }
      },
      "BurnLazyBatch(address,address,uint256[],uint256[])": {
        "params": {
          "account": "address used to burn",
          "amounts": "amounts of tokens burned",
          "ids": "token ids of tokens burned",
          "operator": "operator used to burn"
        }
      },
      "LockedContentViewed(address,uint256,string)": {
        "params": {
          "lockedContent": "locked content queried",
          "msgSender": "user that triggered it",
          "tokenId": "token id queried"
        }
      },
      "Minted(address,uint256,string,uint256)": {
        "params": {
          "amount": "amount of token minted",
          "toAddress": "recipient of the mint",
          "tokenId": "token id of the mint",
          "tokenURI": "token uri of the token minted"
        }
      }
    },
    "kind": "dev",
    "methods": {
      "balanceOf(address,uint256)": {
        "details": "See {IERC1155-balanceOf}. Requirements: - `account` cannot be the zero address."
      },
      "balanceOfBatch(address[],uint256[])": {
        "details": "See {IERC1155-balanceOfBatch}. Requirements: - `accounts` and `ids` must have the same length."
      },
      "burn(address,uint256,uint256)": {
        "params": {
          "account": "account used to burn",
          "amount": "amount of tokens to burn",
          "id": "token to burn"
        }
      },
      "burnBatch(address,uint256[],uint256[])": {
        "params": {
          "account": "account used to burn",
          "amounts": "amounts of tokens to burn",
          "ids": "tokens to burn"
        }
      },
      "getCurrentCounter()": {
        "returns": {
          "_0": "current token conter"
        }
      },
      "getCurrentLockedContentViewTracker(uint256)": {
        "params": {
          "tokenId": "token to query"
        },
        "returns": {
          "_0": "locked content view count"
        }
      },
      "getLockedContent(uint256)": {
        "params": {
          "tokenId": "token to query"
        }
      },
      "getRoleAdmin(bytes32)": {
        "details": "Returns the admin role that controls `role`. See {grantRole} and {revokeRole}. To change a role's admin, use {_setRoleAdmin}."
      },
      "getRoleMember(bytes32,uint256)": {
        "details": "Returns one of the accounts that have `role`. `index` must be a value between 0 and {getRoleMemberCount}, non-inclusive. Role bearers are not sorted in any particular way, and their ordering may change at any point. WARNING: When using {getRoleMember} and {getRoleMemberCount}, make sure you perform all queries on the same block. See the following https://forum.openzeppelin.com/t/iterating-over-elements-on-enumerableset-in-openzeppelin-contracts/2296[forum post] for more information."
      },
      "getRoleMemberCount(bytes32)": {
        "details": "Returns the number of accounts that have `role`. Can be used together with {getRoleMember} to enumerate all bearers of a role."
      },
      "getRoyalties(uint256)": {
        "params": {
          "tokenId": "token to query"
        },
        "returns": {
          "_0": "token royalties details"
        }
      },
      "getRoyaltiesBps(uint256)": {
        "details": "fee basis points 10000 = 100%",
        "params": {
          "tokenId": "token to query"
        },
        "returns": {
          "_0": "token royalties bps details"
        }
      },
      "getRoyaltiesRecipients(uint256)": {
        "params": {
          "tokenId": "token to query"
        },
        "returns": {
          "_0": "token royalties recipients details"
        }
      },
      "grantRole(bytes32,address)": {
        "details": "Grants `role` to `account`. If `account` had not been already granted `role`, emits a {RoleGranted} event. Requirements: - the caller must have ``role``'s admin role. May emit a {RoleGranted} event."
      },
      "hasRole(bytes32,address)": {
        "details": "Returns `true` if `account` has been granted `role`."
      },
      "initialize(string,string,string)": {
        "params": {
          "_name": "contract name",
          "_symbol": "contract symbol",
          "uri": "contract uri"
        }
      },
      "isApprovedForAll(address,address)": {
        "details": "See {IERC1155-isApprovedForAll}."
      },
      "mintAndTransfer((uint256,string,uint256,address,(address,uint256)[],bytes),address,uint256)": {
        "params": {
          "_amount": "amount of token(s)",
          "lazyMintData": "lazyMintData for token(s)",
          "to": "recipient for token(s)"
        }
      },
      "mintGhost(address,uint256,bytes,(address,uint256)[],string,string)": {
        "params": {
          "amount": "royalties for token(s)",
          "data": "royalties for token(s)",
          "lockedcontent": "lockedcontent for token(s)",
          "royalties": "royalties for token(s)",
          "to": "recipient for token(s)",
          "tokenURI": "tokenURI for token(s)"
        }
      },
      "owner()": {
        "details": "Returns the address of the current owner."
      },
      "pause()": {
        "details": "Pauses all token transfers. See {ERC1155Pausable} and {Pausable-_pause}. Requirements: - the caller must have the `PAUSER_ROLE`."
      },
      "paused()": {
        "details": "Returns true if the contract is paused, and false otherwise."
      },
      "renounceOwnership()": {
        "details": "Leaves the contract without owner. It will not be possible to call `onlyOwner` functions anymore. Can only be called by the current owner. NOTE: Renouncing ownership will leave the contract without an owner, thereby removing any functionality that is only available to the owner."
      },
      "renounceRole(bytes32,address)": {
        "details": "Revokes `role` from the calling account. Roles are often managed via {grantRole} and {revokeRole}: this function's purpose is to provide a mechanism for accounts to lose their privileges if they are compromised (such as when a trusted device is misplaced). If the calling account had been revoked `role`, emits a {RoleRevoked} event. Requirements: - the caller must be `account`. May emit a {RoleRevoked} event."
      },
      "revokeRole(bytes32,address)": {
        "details": "Revokes `role` from `account`. If `account` had been granted `role`, emits a {RoleRevoked} event. Requirements: - the caller must have ``role``'s admin role. May emit a {RoleRevoked} event."
      },
      "safeBatchTransferFrom(address,address,uint256[],uint256[],bytes)": {
        "details": "See {IERC1155-safeBatchTransferFrom}."
      },
      "safeTransferFrom(address,address,uint256,uint256,bytes)": {
        "details": "See {IERC1155-safeTransferFrom}."
      },
      "setApprovalForAll(address,bool)": {
        "details": "See {IERC1155-setApprovalForAll}."
      },
      "supportsInterface(bytes4)": {
        "details": "See {IERC165-supportsInterface}.",
        "params": {
          "interfaceId": "interface id to query"
        },
        "returns": {
          "_0": "status interface id support status"
        }
      },
      "transferFromOrMint((uint256,string,uint256,address,(address,uint256)[],bytes),address,address,uint256)": {
        "params": {
          "amount": "amount of token",
          "data": "lazyMintData for token",
          "from": "source for token",
          "to": "recipient for token"
        }
      },
      "transferOwnership(address)": {
        "details": "Transfers ownership of the contract to a new account (`newOwner`). Can only be called by the current owner."
      },
      "unpause()": {
        "details": "Unpauses all token transfers. See {ERC1155Pausable} and {Pausable-_unpause}. Requirements: - the caller must have the `PAUSER_ROLE`."
      },
      "uri(uint256)": {
        "details": "See {IERC1155MetadataURI-uri}. This implementation returns the same URI for *all* token types. It relies on the token type ID substitution mechanism https://eips.ethereum.org/EIPS/eip-1155#metadata[defined in the EIP]. Clients calling this function must replace the `\\{id\\}` substring with the actual token type ID."
      }
    },
    "version": 1
  },
  "userdoc": {
    "events": {
      "BurnLazy(address,address,uint256,uint256)": {
        "notice": "This event is emitted when a lazy minted token is burned"
      },
      "BurnLazyBatch(address,address,uint256[],uint256[])": {
        "notice": "This event is emitted when multiple lazy minted tokens are burned"
      },
      "LockedContentViewed(address,uint256,string)": {
        "notice": "This event is emitted when a token locked content is viewed"
      },
      "Minted(address,uint256,string,uint256)": {
        "notice": "This event is emitted when a token is minted"
      }
    },
    "kind": "user",
    "methods": {
      "_GHOSTMARKET_NFT_ROYALTIES()": {
        "notice": "bytes4(keccak256(_GHOSTMARKET_NFT_ROYALTIES)) == 0xe42093a6"
      },
      "burn(address,uint256,uint256)": {
        "notice": "Burn token"
      },
      "burnBatch(address,uint256[],uint256[])": {
        "notice": "Bulk burn tokens"
      },
      "getCurrentCounter()": {
        "notice": "Return current token counter"
      },
      "getCurrentLockedContentViewTracker(uint256)": {
        "notice": "Return locked content view count for a token"
      },
      "getLockedContent(uint256)": {
        "notice": "Trigger locked content event for a token"
      },
      "getRoyalties(uint256)": {
        "notice": "Return royalties for a token"
      },
      "getRoyaltiesBps(uint256)": {
        "notice": "Return royalties bps for a token"
      },
      "getRoyaltiesRecipients(uint256)": {
        "notice": "Return royalties recipients for a token"
      },
      "initialize(string,string,string)": {
        "notice": "Initialize the contract"
      },
      "mintAndTransfer((uint256,string,uint256,address,(address,uint256)[],bytes),address,uint256)": {
        "notice": "Lazy mint token"
      },
      "mintGhost(address,uint256,bytes,(address,uint256)[],string,string)": {
        "notice": "Mint token(s)"
      },
      "name()": {
        "notice": "contract name"
      },
      "supportsInterface(bytes4)": {
        "notice": "Return interface support for an interface id"
      },
      "symbol()": {
        "notice": "contract symbol"
      },
      "transferFromOrMint((uint256,string,uint256,address,(address,uint256)[],bytes),address,address,uint256)": {
        "notice": "Transfer (if exists) or mint (if non existing) token(s)"
      }
    },
    "notice": "GhostMarket ERC1155 contract with minting, burning, pause, royalties & lock content functions.",
    "version": 1
  },
  "storageLayout": {
    "storage": [
      {
        "astId": 721,
        "contract": "src/mint/GhostMarketERC1155.sol:GhostMarketERC1155",
        "label": "_initialized",
        "offset": 0,
        "slot": "0",
        "type": "t_uint8"
      },
      {
        "astId": 724,
        "contract": "src/mint/GhostMarketERC1155.sol:GhostMarketERC1155",
        "label": "_initializing",
        "offset": 1,
        "slot": "0",
        "type": "t_bool"
      },
      {
        "astId": 2448,
        "contract": "src/mint/GhostMarketERC1155.sol:GhostMarketERC1155",
        "label": "__gap",
        "offset": 0,
        "slot": "1",
        "type": "t_array(t_uint256)50_storage"
      },
      {
        "astId": 3401,
        "contract": "src/mint/GhostMarketERC1155.sol:GhostMarketERC1155",
        "label": "__gap",
        "offset": 0,
        "slot": "51",
        "type": "t_array(t_uint256)50_storage"
      },
      {
        "astId": 184,
        "contract": "src/mint/GhostMarketERC1155.sol:GhostMarketERC1155",
        "label": "_roles",
        "offset": 0,
        "slot": "101",
        "type": "t_mapping(t_bytes32,t_struct(RoleData)179_storage)"
      },
      {
        "astId": 483,
        "contract": "src/mint/GhostMarketERC1155.sol:GhostMarketERC1155",
        "label": "__gap",
        "offset": 0,
        "slot": "102",
        "type": "t_array(t_uint256)49_storage"
      },
      {
        "astId": 33,
        "contract": "src/mint/GhostMarketERC1155.sol:GhostMarketERC1155",
        "label": "_roleMembers",
        "offset": 0,
        "slot": "151",
        "type": "t_mapping(t_bytes32,t_struct(AddressSet)3726_storage)"
      },
      {
        "astId": 143,
        "contract": "src/mint/GhostMarketERC1155.sol:GhostMarketERC1155",
        "label": "__gap",
        "offset": 0,
        "slot": "152",
        "type": "t_array(t_uint256)49_storage"
      },
      {
        "astId": 6137,
        "contract": "src/mint/GhostMarketERC1155.sol:GhostMarketERC1155",
        "label": "_balances",
        "offset": 0,
        "slot": "201",
        "type": "t_mapping(t_uint256,t_mapping(t_address,t_uint256))"
      },
      {
        "astId": 6143,
        "contract": "src/mint/GhostMarketERC1155.sol:GhostMarketERC1155",
        "label": "_operatorApprovals",
        "offset": 0,
        "slot": "202",
        "type": "t_mapping(t_address,t_mapping(t_address,t_bool))"
      },
      {
        "astId": 6145,
        "contract": "src/mint/GhostMarketERC1155.sol:GhostMarketERC1155",
        "label": "_uri",
        "offset": 0,
        "slot": "203",
        "type": "t_string_storage"
      },
      {
        "astId": 6149,
        "contract": "src/mint/GhostMarketERC1155.sol:GhostMarketERC1155",
        "label": "supply",
        "offset": 0,
        "slot": "204",
        "type": "t_mapping(t_uint256,t_uint256)"
      },
      {
        "astId": 6153,
        "contract": "src/mint/GhostMarketERC1155.sol:GhostMarketERC1155",
        "label": "minted",
        "offset": 0,
        "slot": "205",
        "type": "t_mapping(t_uint256,t_uint256)"
      },
      {
        "astId": 7310,
        "contract": "src/mint/GhostMarketERC1155.sol:GhostMarketERC1155",
        "label": "__gap",
        "offset": 0,
        "slot": "206",
        "type": "t_array(t_uint256)47_storage"
      },
      {
        "astId": 10640,
        "contract": "src/mint/GhostMarketERC1155.sol:GhostMarketERC1155",
        "label": "__gap",
        "offset": 0,
        "slot": "253",
        "type": "t_array(t_uint256)50_storage"
      },
      {
        "astId": 886,
        "contract": "src/mint/GhostMarketERC1155.sol:GhostMarketERC1155",
        "label": "_paused",
        "offset": 0,
        "slot": "303",
        "type": "t_bool"
      },
      {
        "astId": 991,
        "contract": "src/mint/GhostMarketERC1155.sol:GhostMarketERC1155",
        "label": "__gap",
        "offset": 0,
        "slot": "304",
        "type": "t_array(t_uint256)49_storage"
      },
      {
        "astId": 10719,
        "contract": "src/mint/GhostMarketERC1155.sol:GhostMarketERC1155",
        "label": "__gap",
        "offset": 0,
        "slot": "353",
        "type": "t_array(t_uint256)50_storage"
      },
      {
        "astId": 6107,
        "contract": "src/mint/GhostMarketERC1155.sol:GhostMarketERC1155",
        "label": "__gap",
        "offset": 0,
        "slot": "403",
        "type": "t_array(t_uint256)50_storage"
      },
      {
        "astId": 1006,
        "contract": "src/mint/GhostMarketERC1155.sol:GhostMarketERC1155",
        "label": "_status",
        "offset": 0,
        "slot": "453",
        "type": "t_uint256"
      },
      {
        "astId": 1050,
        "contract": "src/mint/GhostMarketERC1155.sol:GhostMarketERC1155",
        "label": "__gap",
        "offset": 0,
        "slot": "454",
        "type": "t_array(t_uint256)49_storage"
      },
      {
        "astId": 593,
        "contract": "src/mint/GhostMarketERC1155.sol:GhostMarketERC1155",
        "label": "_owner",
        "offset": 0,
        "slot": "503",
        "type": "t_address"
      },
      {
        "astId": 713,
        "contract": "src/mint/GhostMarketERC1155.sol:GhostMarketERC1155",
        "label": "__gap",
        "offset": 0,
        "slot": "504",
        "type": "t_array(t_uint256)49_storage"
      },
      {
        "astId": 3313,
        "contract": "src/mint/GhostMarketERC1155.sol:GhostMarketERC1155",
        "label": "_supportedInterfaces",
        "offset": 0,
        "slot": "553",
        "type": "t_mapping(t_bytes4,t_bool)"
      },
      {
        "astId": 3357,
        "contract": "src/mint/GhostMarketERC1155.sol:GhostMarketERC1155",
        "label": "__gap",
        "offset": 0,
        "slot": "554",
        "type": "t_array(t_uint256)49_storage"
      },
      {
        "astId": 3146,
        "contract": "src/mint/GhostMarketERC1155.sol:GhostMarketERC1155",
        "label": "_HASHED_NAME",
        "offset": 0,
        "slot": "603",
        "type": "t_bytes32"
      },
      {
        "astId": 3148,
        "contract": "src/mint/GhostMarketERC1155.sol:GhostMarketERC1155",
        "label": "_HASHED_VERSION",
        "offset": 0,
        "slot": "604",
        "type": "t_bytes32"
      },
      {
        "astId": 3286,
        "contract": "src/mint/GhostMarketERC1155.sol:GhostMarketERC1155",
        "label": "__gap",
        "offset": 0,
        "slot": "605",
        "type": "t_array(t_uint256)50_storage"
      },
      {
        "astId": 7417,
        "contract": "src/mint/GhostMarketERC1155.sol:GhostMarketERC1155",
        "label": "__gap",
        "offset": 0,
        "slot": "655",
        "type": "t_array(t_uint256)50_storage"
      },
      {
        "astId": 10507,
        "contract": "src/mint/GhostMarketERC1155.sol:GhostMarketERC1155",
        "label": "__gap",
        "offset": 0,
        "slot": "705",
        "type": "t_array(t_uint256)50_storage"
      },
      {
        "astId": 8735,
        "contract": "src/mint/GhostMarketERC1155.sol:GhostMarketERC1155",
        "label": "name",
        "offset": 0,
        "slot": "755",
        "type": "t_string_storage"
      },
      {
        "astId": 8738,
        "contract": "src/mint/GhostMarketERC1155.sol:GhostMarketERC1155",
        "label": "symbol",
        "offset": 0,
        "slot": "756",
        "type": "t_string_storage"
      },
      {
        "astId": 8750,
        "contract": "src/mint/GhostMarketERC1155.sol:GhostMarketERC1155",
        "label": "_royalties",
        "offset": 0,
        "slot": "757",
        "type": "t_mapping(t_uint256,t_array(t_struct(Part)12141_storage)dyn_storage)"
      },
      {
        "astId": 8755,
        "contract": "src/mint/GhostMarketERC1155.sol:GhostMarketERC1155",
        "label": "_lockedContent",
        "offset": 0,
        "slot": "758",
        "type": "t_mapping(t_uint256,t_string_storage)"
      },
      {
        "astId": 8760,
        "contract": "src/mint/GhostMarketERC1155.sol:GhostMarketERC1155",
        "label": "_lockedContentViewTracker",
        "offset": 0,
        "slot": "759",
        "type": "t_mapping(t_uint256,t_uint256)"
      },
      {
        "astId": 8764,
        "contract": "src/mint/GhostMarketERC1155.sol:GhostMarketERC1155",
        "label": "_metadataJson",
        "offset": 0,
        "slot": "760",
        "type": "t_mapping(t_uint256,t_string_storage)"
      },
      {
        "astId": 8810,
        "contract": "src/mint/GhostMarketERC1155.sol:GhostMarketERC1155",
        "label": "_payedMintFeesBalance",
        "offset": 0,
        "slot": "761",
        "type": "t_uint256"
      },
      {
        "astId": 8812,
        "contract": "src/mint/GhostMarketERC1155.sol:GhostMarketERC1155",
        "label": "_ghostmarketMintFees",
        "offset": 0,
        "slot": "762",
        "type": "t_uint256"
      },
      {
        "astId": 8900,
        "contract": "src/mint/GhostMarketERC1155.sol:GhostMarketERC1155",
        "label": "_tokenIdTracker",
        "offset": 0,
        "slot": "763",
        "type": "t_struct(Counter)2455_storage"
      },
      {
        "astId": 9741,
        "contract": "src/mint/GhostMarketERC1155.sol:GhostMarketERC1155",
        "label": "__gap",
        "offset": 0,
        "slot": "764",
        "type": "t_array(t_uint256)50_storage"
      }
    ],
    "types": {
      "t_address": {
        "encoding": "inplace",
        "label": "address",
        "numberOfBytes": "20"
      },
      "t_address_payable": {
        "encoding": "inplace",
        "label": "address payable",
        "numberOfBytes": "20"
      },
      "t_array(t_bytes32)dyn_storage": {
        "base": "t_bytes32",
        "encoding": "dynamic_array",
        "label": "bytes32[]",
        "numberOfBytes": "32"
      },
      "t_array(t_struct(Part)12141_storage)dyn_storage": {
        "base": "t_struct(Part)12141_storage",
        "encoding": "dynamic_array",
        "label": "struct LibPart.Part[]",
        "numberOfBytes": "32"
      },
      "t_array(t_uint256)47_storage": {
        "base": "t_uint256",
        "encoding": "inplace",
        "label": "uint256[47]",
        "numberOfBytes": "1504"
      },
      "t_array(t_uint256)49_storage": {
        "base": "t_uint256",
        "encoding": "inplace",
        "label": "uint256[49]",
        "numberOfBytes": "1568"
      },
      "t_array(t_uint256)50_storage": {
        "base": "t_uint256",
        "encoding": "inplace",
        "label": "uint256[50]",
        "numberOfBytes": "1600"
      },
      "t_bool": {
        "encoding": "inplace",
        "label": "bool",
        "numberOfBytes": "1"
      },
      "t_bytes32": {
        "encoding": "inplace",
        "label": "bytes32",
        "numberOfBytes": "32"
      },
      "t_bytes4": {
        "encoding": "inplace",
        "label": "bytes4",
        "numberOfBytes": "4"
      },
      "t_mapping(t_address,t_bool)": {
        "encoding": "mapping",
        "key": "t_address",
        "label": "mapping(address => bool)",
        "numberOfBytes": "32",
        "value": "t_bool"
      },
      "t_mapping(t_address,t_mapping(t_address,t_bool))": {
        "encoding": "mapping",
        "key": "t_address",
        "label": "mapping(address => mapping(address => bool))",
        "numberOfBytes": "32",
        "value": "t_mapping(t_address,t_bool)"
      },
      "t_mapping(t_address,t_uint256)": {
        "encoding": "mapping",
        "key": "t_address",
        "label": "mapping(address => uint256)",
        "numberOfBytes": "32",
        "value": "t_uint256"
      },
      "t_mapping(t_bytes32,t_struct(AddressSet)3726_storage)": {
        "encoding": "mapping",
        "key": "t_bytes32",
        "label": "mapping(bytes32 => struct EnumerableSetUpgradeable.AddressSet)",
        "numberOfBytes": "32",
        "value": "t_struct(AddressSet)3726_storage"
      },
      "t_mapping(t_bytes32,t_struct(RoleData)179_storage)": {
        "encoding": "mapping",
        "key": "t_bytes32",
        "label": "mapping(bytes32 => struct AccessControlUpgradeable.RoleData)",
        "numberOfBytes": "32",
        "value": "t_struct(RoleData)179_storage"
      },
      "t_mapping(t_bytes32,t_uint256)": {
        "encoding": "mapping",
        "key": "t_bytes32",
        "label": "mapping(bytes32 => uint256)",
        "numberOfBytes": "32",
        "value": "t_uint256"
      },
      "t_mapping(t_bytes4,t_bool)": {
        "encoding": "mapping",
        "key": "t_bytes4",
        "label": "mapping(bytes4 => bool)",
        "numberOfBytes": "32",
        "value": "t_bool"
      },
      "t_mapping(t_uint256,t_array(t_struct(Part)12141_storage)dyn_storage)": {
        "encoding": "mapping",
        "key": "t_uint256",
        "label": "mapping(uint256 => struct LibPart.Part[])",
        "numberOfBytes": "32",
        "value": "t_array(t_struct(Part)12141_storage)dyn_storage"
      },
      "t_mapping(t_uint256,t_mapping(t_address,t_uint256))": {
        "encoding": "mapping",
        "key": "t_uint256",
        "label": "mapping(uint256 => mapping(address => uint256))",
        "numberOfBytes": "32",
        "value": "t_mapping(t_address,t_uint256)"
      },
      "t_mapping(t_uint256,t_string_storage)": {
        "encoding": "mapping",
        "key": "t_uint256",
        "label": "mapping(uint256 => string)",
        "numberOfBytes": "32",
        "value": "t_string_storage"
      },
      "t_mapping(t_uint256,t_uint256)": {
        "encoding": "mapping",
        "key": "t_uint256",
        "label": "mapping(uint256 => uint256)",
        "numberOfBytes": "32",
        "value": "t_uint256"
      },
      "t_string_storage": {
        "encoding": "bytes",
        "label": "string",
        "numberOfBytes": "32"
      },
      "t_struct(AddressSet)3726_storage": {
        "encoding": "inplace",
        "label": "struct EnumerableSetUpgradeable.AddressSet",
        "members": [
          {
            "astId": 3725,
            "contract": "src/mint/GhostMarketERC1155.sol:GhostMarketERC1155",
            "label": "_inner",
            "offset": 0,
            "slot": "0",
            "type": "t_struct(Set)3425_storage"
          }
        ],
        "numberOfBytes": "64"
      },
      "t_struct(Counter)2455_storage": {
        "encoding": "inplace",
        "label": "struct CountersUpgradeable.Counter",
        "members": [
          {
            "astId": 2454,
            "contract": "src/mint/GhostMarketERC1155.sol:GhostMarketERC1155",
            "label": "_value",
            "offset": 0,
            "slot": "0",
            "type": "t_uint256"
          }
        ],
        "numberOfBytes": "32"
      },
      "t_struct(Part)12141_storage": {
        "encoding": "inplace",
        "label": "struct LibPart.Part",
        "members": [
          {
            "astId": 12138,
            "contract": "src/mint/GhostMarketERC1155.sol:GhostMarketERC1155",
            "label": "recipient",
            "offset": 0,
            "slot": "0",
            "type": "t_address_payable"
          },
          {
            "astId": 12140,
            "contract": "src/mint/GhostMarketERC1155.sol:GhostMarketERC1155",
            "label": "value",
            "offset": 0,
            "slot": "1",
            "type": "t_uint256"
          }
        ],
        "numberOfBytes": "64"
      },
      "t_struct(RoleData)179_storage": {
        "encoding": "inplace",
        "label": "struct AccessControlUpgradeable.RoleData",
        "members": [
          {
            "astId": 176,
            "contract": "src/mint/GhostMarketERC1155.sol:GhostMarketERC1155",
            "label": "members",
            "offset": 0,
            "slot": "0",
            "type": "t_mapping(t_address,t_bool)"
          },
          {
            "astId": 178,
            "contract": "src/mint/GhostMarketERC1155.sol:GhostMarketERC1155",
            "label": "adminRole",
            "offset": 0,
            "slot": "1",
            "type": "t_bytes32"
          }
        ],
        "numberOfBytes": "64"
      },
      "t_struct(Set)3425_storage": {
        "encoding": "inplace",
        "label": "struct EnumerableSetUpgradeable.Set",
        "members": [
          {
            "astId": 3420,
            "contract": "src/mint/GhostMarketERC1155.sol:GhostMarketERC1155",
            "label": "_values",
            "offset": 0,
            "slot": "0",
            "type": "t_array(t_bytes32)dyn_storage"
          },
          {
            "astId": 3424,
            "contract": "src/mint/GhostMarketERC1155.sol:GhostMarketERC1155",
            "label": "_indexes",
            "offset": 0,
            "slot": "1",
            "type": "t_mapping(t_bytes32,t_uint256)"
          }
        ],
        "numberOfBytes": "64"
      },
      "t_uint256": {
        "encoding": "inplace",
        "label": "uint256",
        "numberOfBytes": "32"
      },
      "t_uint8": {
        "encoding": "inplace",
        "label": "uint8",
        "numberOfBytes": "1"
      }
    }
  }
}